:100000000C9464000C948C000C948C000C948C0068
:100010000C948C000C948C000C948C000C94B615F1
:100020000C948C000C948C000C948C000C94D317C2
:100030000C948C000C948C000C948C000C948C0010
:100040000C946A160C948C000C9438160C941216AE
:100050000C948C000C948C000C948C000C948C00F0
:100060000C94B4160C948C000000000024002700AF
:100070002A0000000000250028002B0000000000DE
:1000800023002600290004040404040404040202DA
:100090000202020203030303030301020408102007
:1000A0004080010204081020010204081020000012
:1000B0000008000201000003040700000000000027
:1000C000000002008F18031F11241FBECFEFD8E0DD
:1000D000DEBFCDBF12E0A0E0B1E0EEEFF1E402C080
:1000E00005900D92AE3BB107D9F726E0AEEBB2E03A
:1000F00001C01D92A934B207E1F710E0C3E6D0E0D9
:1001000004C02197FE010E94B11FC236D107C9F772
:100110000E94C4190C94F2200C940000862FE091E8
:10012000B903F091BA03309711F0BA010994089518
:10013000862FE091B703F091B803309711F0BA0120
:1001400009940895862FE091B503F091B603309796
:1001500011F0BA0109940895862FE091B303F0914C
:10016000B403309711F0BA0109940895862FE091F5
:10017000B103F091B203309711F0BA0109940895D8
:10018000862FE091AF03F091B003309711F0BA01E0
:10019000099408950895862F642FE091BB03F09190
:1001A000BC03309711F0A90109940895E091BD03B3
:1001B000F091BE03309709F009940895A091980535
:1001C000B0919905ED91FC9111970190F081E02D8E
:1001D000682FCD010994982F20917C0481E0213271
:1001E00008F043C0809158048111FCCF80917B04BA
:1001F00032E030935804909357049FEF9093560445
:100200001092550420935404ABE5B4E0E4E3F4E029
:1002100090E0291331C01092330490913304880F79
:10022000892B8093330480913204813049F51092F8
:100230003204809133048093BB008091BC0083FD25
:10024000F8CF85EC8093BC00809158048230E1F3B4
:10025000809156048F3FB1F0809156048032A1F016
:1002600080915604803391F084E010925A041092E9
:100270007C041092590408953D9131939F5FC9CF3A
:1002800085EEE0CF80E0F1CF82E0EFCF83E0EDCFED
:100290001F93CF93DF93182FEB0180915F0590910F
:1002A00060056817790760F480915D0590915E059F
:1002B000C80FD91F188380E0DF91CF911F91089557
:1002C000E0918C05F0918D05309711F481E0F4CF29
:1002D00081E080935C05809178059091790509957E
:1002E00080915F0590916005C817D90778F7DCCF3A
:1002F000CF93DF93EC01FB0130E020E0C901880FD0
:10030000991F8C179D0778F44081DB014D93BD0147
:1003100011979181979599279795942B9C932F5F8F
:100320003F4F3296EBCFC901DF91CF910895AF9245
:10033000BF92CF92DF92EF92FF920F931F93CF93D2
:10034000DF936C017B018B01040F151FEB015E0134
:10035000AE18BF08C017D10759F06991D601ED91C9
:10036000FC910190F081E02DC6010995892B79F768
:10037000C501DF91CF911F910F91FF90EF90DF901A
:10038000CF90BF90AF900895FC01538D448D252FE1
:1003900030E0842F90E0821B930B541710F0CF961F
:1003A000089501970895FC01918D828D981761F051
:1003B000A28DAE0FBF2FB11D5D968C91928D9F5F68
:1003C0009F73928F90E008958FEF9FEF0895FC0147
:1003D000918D828D981731F0828DE80FF11D858DFA
:1003E00090E008958FEF9FEF0895FC01918D228D8D
:1003F000892F90E0805C9F4F821B91098F73992712
:1004000008958DE794E00E94F50121E0892B09F41D
:1004100020E0822F089580E090E0892B29F00E944F
:10042000010281110C9400000895FC01A48DA80F15
:10043000B92FB11DA35ABF4F2C91848D90E0019626
:100440008F739927848FA689B7892C93A089B18946
:100450008C91837080648C93938D848D981306C0E7
:100460000288F389E02D80818F7D80830895EF924B
:10047000FF920F931F93CF93DF93EC0181E0888F5E
:100480009B8D8C8D98131AC0E889F989808185FF2E
:1004900015C09FB7F894EE89FF896083E889F989D0
:1004A00080818370806480839FBF81E090E0DF91D2
:1004B000CF911F910F91FF90EF900895F62E0B8D25
:1004C00010E00F5F1F4F0F731127E02E8C8D8E11E0
:1004D0000CC00FB607FCFACFE889F989808185FF47
:1004E000F5CFCE010E941502F1CFEB8DEC0FFD2F61
:1004F000F11DE35AFF4FF0829FB7F8940B8FEA8902
:10050000FB8980818062CFCFCF93DF93EC01888D10
:100510008823B9F0AA89BB89E889F9898C9185FD7E
:1005200003C0808186FD0DC00FB607FCF7CF8C910C
:1005300085FFF2CF808185FFEDCFCE010E941502AD
:10054000E9CFDF91CF910895833081F028F4813095
:1005500099F08230A9F008958730A9F08830C9F069
:100560008430B1F4809180008F7D03C08091800041
:100570008F7780938000089584B58F7784BD089528
:1005800084B58F7DFBCF8091B0008F778093B000D2
:1005900008958091B0008F7DF9CFCF93DF93282FFE
:1005A00030E0F901E255FF4F8491F901E656FF4F23
:1005B000D491F901EA57FF4FC491CC23A1F08111E6
:1005C0000E94A402EC2FF0E0EE0FFF1FE458FF4F53
:1005D000A591B491EC91ED2381E090E009F480E0E5
:1005E000DF91CF91089580E090E0FACF1F93CF93F1
:1005F000DF93282F30E0F901E255FF4F8491F90194
:10060000E656FF4FD491F901EA57FF4FC491CC232E
:10061000A9F0162F81110E94A402EC2FF0E0EE0F3A
:10062000FF1FEE58FF4FA591B4918FB7F894EC914E
:10063000111108C0D095DE23DC938FBFDF91CF91DD
:100640001F910895DE2BF8CF9091000189130BC004
:10065000E2ECF0E0E4919FEF90930001E13049F08B
:1006600028F0E23061F060E00C94F60210926E0027
:10067000FACF90916F009D7F90936F00F4CF90918F
:1006800070009D7F9093700091E09093B0009091E6
:10069000B100987F94609093B1001092B300E3CFC3
:1006A000CF93DF9390E0FC01E656FF4F24918A57E9
:1006B0009F4FFC0184918823C9F090E0880F991F17
:1006C000FC01E859FF4FA591B491FC01EE58FF4F92
:1006D000C591D49161110DC09FB7F8948C9120956C
:1006E00082238C938881282328839FBFDF91CF9119
:1006F0000895623051F49FB7F8943C91822F809511
:1007000083238C93E8812E2BEFCF8FB7F894EC9155
:100710002E2B2C938FBFEACF8E3008F08E5087702F
:10072000806480937C0080917A00806480937A005A
:1007300080917A0086FDFCCF8091780090917900BD
:1007400008953FB7F8948091A4039091A503A091D8
:10075000A603B091A70326B5A89B05C02F3F19F0AB
:100760000196A11DB11D3FBFBA2FA92F982F882731
:10077000BC01CD01620F711D811D911D42E0660F0C
:10078000771F881F991F4A95D1F708958F929F92DE
:10079000AF92BF92CF92DF92EF92FF926B017C01FA
:1007A0000E94A1034B015C01C114D104E104F104D6
:1007B000B9F00E94A103681979098A099B09683E6A
:1007C00073408105910580F321E0C21AD108E10848
:1007D000F10888EE880E83E0981EA11CB11CE4CFBE
:1007E000FF90EF90DF90CF90BF90AF909F908F9051
:1007F00008955F926F927F928F929F92AF92BF9275
:10080000CF92DF92EF92FF920F931F93CF93DF93DC
:100810005C016901DA015C90232B19F4CC24CA94A1
:10082000DC2C8A013A01660E771ED0E0C0E0F12C84
:10083000E12C87E0882E912CF50180819181D801EF
:100840006C910C2E01C0660F0A94EAF765296F7748
:10085000DC01ED91FC910190F081E02D0995BFEF55
:10086000EB1AFB0AF801608170E0C4018C1B9D0B40
:1008700002C0759567958A95E2F7562E2196C73086
:10088000D10558F1CE14DF0441F1D5018D919C9131
:10089000652D6F77DC01ED91FC910190F081E02DE9
:1008A0000995BFEFEB1AFB0A551C5524551C2797D9
:1008B000E6CFEC14FD0408F4BFCFDF91CF911F9178
:1008C0000F91FF90EF90DF90CF90BF90AF909F90EF
:1008D0008F907F906F905F9008950F5F1F4F60160D
:1008E000710639F7209749F3EC14FD0430F7F50150
:1008F0008081918161E070E001C0660FCA95EAF7DE
:1009000061506521DC01ED91FC910190F081E02DB9
:10091000DF91CF911F910F91FF90EF90DF90CF90DB
:10092000BF90AF909F908F907F906F905F90099451
:100930001F93CF93DF9300D0CDB7DEB7182F7A8304
:10094000698380915A0590915B050097C9F0DC019D
:10095000ED91FC910190F081E02D1031B8F461151A
:100960007044A0F4612F606E099522E030E0AE0182
:100970004F5F5F4F62E070E08AE595E00E94F90307
:100980000F900F90DF91CF911F91089560EF09951F
:1009900080915A0590915B05DC01ED91FC910190ED
:1009A000F081E02D6FE6099580915A0590915B05E5
:1009B000DC01ED91FC910190F081E02D612F099512
:1009C00022E030E0AE014F5F5F4F62E070E08AE509
:1009D00095E00E94F90380915A0590915B05DC0136
:1009E000ED91FC910190F081E02D67EF0995C8CF62
:1009F000EF92FF920F931F93CF93DF93C82F8091B5
:100A00005A0590915B050097C9F17A018B01DC01D1
:100A1000ED91FC910190F081E02D60EF09958091BE
:100A20005A0590915B05DC01ED91FC910190F081FC
:100A3000E02D6C2F0995E7010E0D1F1DC017D10782
:100A400059F030E020E0AE0161E070E08AE595E029
:100A50000E94F9032196F2CF80915A0590915B058F
:100A6000DC01ED91FC910190F081E02D67EFDF91C9
:100A7000CF911F910F91FF90EF900994DF91CF914B
:100A80001F910F91FF90EF900895CF93DF93009700
:100A900029F1EC01C05CDF4F888199810097F1F06A
:100AA000DC01ED91FC910190F081E02D69EF099559
:100AB00088819981DC01ED91FC910190F081E02D1C
:100AC00062E0099588819981DC01ED91FC910190AA
:100AD000F081E02D66E0DF91CF910994DF91CF9115
:100AE0000895CF92DF92EF92FF920F931F93CF93CF
:100AF000DF93009709F463C0FC01E058FF4FE080EA
:100B0000EE2009F45CC0EC01C05CDF4FA881B98124
:100B1000109709F454C0FC01EF57FF4FC080D180FB
:100B2000F60111810081ED91FC9111970190F08106
:100B3000E02D60EFCD01099588819981DC01ED916F
:100B4000FC910190F081E02D69E7099588819981F8
:100B5000DC01ED91FC910190F081E02D602F099571
:100B600088819981DC01ED91FC910190F081E02D6B
:100B7000612F0995F12C01E010E00F5F1F4FE01687
:100B8000F10659F030E020E0A601400F511F61E06E
:100B900070E0CE010E94F903F0CF88819981DC01D9
:100BA000ED91FC910190F081E02D67EFDF91CF9105
:100BB0001F910F91FF90EF90DF90CF900994DF91FC
:100BC000CF911F910F91FF90EF90DF90CF900895FC
:100BD00085ED8093BC008091BC0084FDFCCF109219
:100BE0005804089520917E03260F3327331F2132A6
:100BF0003105ECF420915804FC0190E080E02430B1
:100C000069F082E00895A0917E032191AC01445ADD
:100C10005C4FA40FB52FB11D2C930196861798F346
:100C200080917E03680F60937E0380E0089581E0E9
:100C30000895089508950895E0915B0380915A0303
:100C4000E81730F4F0E0E65CFC4F808190E0089516
:100C50008FEF9FEF089590915B0380915A032FEFE0
:100C60003FEF981748F4E92FF0E0E65CFC4F208155
:100C700030E09F5F90935B03C901089580915A0310
:100C800090915B03891B990B0895CF92DF92EF92AD
:100C9000FF920F931F93CF93DF937C01CB018A01C7
:100CA00020915904222389F0EB016B01C40ED51E5B
:100CB000CC15DD0569F06991D701ED91FC910190AA
:100CC000F081E02DC7010995F3CF642F0E94F20552
:100CD000C801DF91CF911F910F91FF90EF90DF90AE
:100CE000CF900895CF93DF931F92CDB7DEB769837E
:100CF000209159042223F9F020917C04203258F0ED
:100D000021E030E0FC013383228390E080E00F900B
:100D1000DF91CF91089580915A04E82FF0E0E55AD1
:100D2000FB4F998190838F5F80935A0480937C045A
:100D300081E090E0ECCF61E0CE0101960E94F205E7
:100D4000F7CF90E080E00895DF92EF92FF920F934B
:100D50001F93CF93DF93EC01D62E7A01890188810E
:100D60008C3008F067C061E08D2D0E9450038881AF
:100D7000282F30E0F901EE0FFF1FE20FF31FEA51B9
:100D8000FA4F9D2D9F736081607C692B608320E208
:100D900032E02E193F0937FF02C02D5F3F4F3595D6
:100DA000279535952795298320E639E0201B310BBF
:100DB00037FF02C02D5F3F4F359527953595279515
:100DC0002A832CE0622F0E94761F829FB00111249B
:100DD00030E020E0AB01420F531FFA01EE0FFF1F7E
:100DE000E40FF51FEA51FA4F908196FD16C02F5F70
:100DF0003F4F2C30310571F781110FC010928000E8
:100E000082E0809381001092850010928400B19A54
:100E100080916F00826080936F00E8818E2F90E058
:100E2000FC01EE0FFF1FE80FF91FEA51FA4F808116
:100E3000806480838881DF91CF911F910F91FF9013
:100E4000EF90DF900895AF92BF92CF92DF92EF9232
:100E5000FF920F931F93CF93DF931092F903109299
:100E6000FA031092FB031092FC031092FD03FC01A5
:100E7000EC5FFB4FC0818D5C9C4FFC01D08161E039
:100E80008C2F0E94500360E08C2F0E94F6026D2F81
:100E900070E090E080E00E94C60360E08C2F0E942A
:100EA00050038BE990E00197F1F700E911E08C2FF6
:100EB0000E94CD02892B81F401501109C1F78EEFF8
:100EC0009FEFDF91CF911F910F91FF90EF90DF90F7
:100ED000CF90BF90AF90089500E911E08C2F0E9451
:100EE000CD02019721F401501109C1F7E8CF18E2B2
:100EF00000E0D0E890E9E92EFF24F3948C2F0E94C3
:100F0000CD02892B29F4F1E0EF1AF108B9F7D7CF18
:100F10000E94A1036B017C0180E9A82EBB24B3943D
:100F20008C2F0E94CD02019729F481E0A81AB10804
:100F3000B9F7C5CF0E94A1036C197D098E099F09DD
:100F4000693271058105910538F0E02FF0E0E75036
:100F5000FC4F80818D2B8083D69511F40F5FD0E8F4
:100F6000115041F690E080E0ACCFCF938630B0F4E2
:100F700021E030E0082E02C0220F331F0A94E2F76E
:100F80004091F7035091F803672B51F42095309569
:100F9000242335233093F8032093F703CF9108954A
:100FA000242B352B3093F8032093F70390913203D1
:100FB0009111F4CFC82F0E948C03BC018C2FCF91CC
:100FC0000C9498045F926F927F928F929F92AF924F
:100FD000BF92CF92DF92EF92FF920F931F93CF9326
:100FE000DF93833008F061C0D1E0D80FDD0FDD0F53
:100FF000DD0F5D2ED53110F044E1542EC62F082FA1
:10100000D8508D2E912CC401880F991F9C01265E0B
:101010003A4F5901D12CC12C10E077247394D51587
:10102000C8F58EEF8D0F8231F8F4F601E80DF91D49
:10103000E356FA4F90819230B8F48C2F87216624C2
:101040006394811101C0612C7601EE0CFF1C91307C
:1010500089F4172937E9E30EF11CF501EE0DFF1DA8
:10106000862D90E091838083770CDF5F8FEFC81A25
:10107000D80AD5CF882371F3F701E956FF4FEA0D5F
:10108000FB1D80819181019729F362E08D2F0E94E1
:101090005003E0CF011119C0F8948BB16C2F682771
:1010A0006C7F612368276BB97894DF91CF911F9192
:1010B0000F91FF90EF90DF90CF90BF90AF909F90F7
:1010C0008F907F906F905F9008950130D1F4C1238D
:1010D000F89495B1812F8F73809589239C2F9F73EE
:1010E000892B85B988B1612F629566956695637085
:1010F00060956823C295C695C695C370C62BC8B9BE
:10110000D3CF1F70F89498B1812F880F880F8095E6
:101110008923C123CC0FCC0FC82BF1CF8F929F9284
:10112000AF92BF92CF92DF92EF92FF920F931F93F5
:10113000CF93DF93EB01843108F098C0082F10E0C3
:10114000F801E356FA4F9081933009F49CC0943033
:1011500009F08CC08250823108F081C0F801E65E4F
:10116000FC4FC080D12C7601EE0CFF1C4B0160328D
:1011700082E078070CF03EC0F701EC0DFD1DE55F45
:10118000F94F8181A8E88A2E912C881A910887FD51
:101190009394880C991C880C991C092C000CAA08A3
:1011A000BB08828128E532E0281B310987FD339591
:1011B000220F331F220F331F032E000C440B550B3D
:1011C000281939094A095B09DB01653B710514F0EF
:1011D000A4EBB0E0B7FF02C0B0E0A0E00E943D1F6A
:1011E00024EB30E040E050E00E94131F820E931E7B
:1011F000A41EB51EF701EC0DFD1DE55FF94F208122
:101200002C3068F5318188E890E0831B910937FD27
:101210009395880F991F880F991F881699067CF05F
:10122000328188E592E0831B910937FD9395880F01
:10123000991F880F991F881699060CF4C40102970C
:10124000880F991F4FB7F89430E0F901EE0FFF1F98
:10125000E20FF31FEA51FA4F928381834FBF000FD1
:10126000111FF801EF54FA4FD183C083DF91CF9162
:101270001F910F91FF90EF90DF90CF90BF90AF90B4
:101280009F908F9008957B01D82F833041F08BEF92
:10129000800F823020F087EF800F833058F461E0B8
:1012A0008D2F0E945003E114F10461F460E08D2F52
:1012B0000E94F602000F111FF801EF54FA4FF1825D
:1012C000E082D4CF8FEFE816F10411F461E0EFCFA4
:1012D000F801E255FF4FE491E33021F148F4E130A9
:1012E000B9F0E230D1F080E8E816F1047CF7DECF07
:1012F000E73011F1E83041F1E430A9F78091800046
:10130000806280938000F0928B00E0928A00D2CFBE
:1013100084B5806884BDE7BCCDCF84B5806284BDD0
:10132000E8BCC8CF80918000806880938000F092F4
:101330008900E0928800BECF8091B00080688093E1
:10134000B000E092B300B6CF8091B000806280938D
:10135000B000E092B400AECF9EEF980F923180F4CF
:10136000E82FF0E0DF01A356BA4F9C91913041F491
:10137000EE0FFF1FEF54FA4F608371830C94F60257
:101380000895FF920F931F93CF93DF9300D0CDB7B3
:10139000DEB7082F10E0F801E154FC4F9081F62EE3
:1013A000F922025D1C4F411104C0F80190819F1584
:1013B00011F12F2D30E03A832983A0915A05B09185
:1013C0005B051097B1F0682F6F706069ED91FC912B
:1013D00011970190F081E02DCD01099522E030E0D8
:1013E000AE014F5F5F4F62E070E08AE595E00E94DA
:1013F000F903F801F0820F900F90DF91CF911F91C8
:101400000F91FF900895833040F5282F30E0F901C7
:10141000EE53FC4F6083672B01F121543C4FF901DF
:101420006081811106C099B19C7F692341E00C94D1
:10143000C109813049F493B126B19F73F0E42F9F25
:1014400090011124922BF1CF26B130E035952795EC
:10145000359527952F706223E9CF0895A82FB0E026
:10146000A65EBC4F9C91292F30E0F901EE0FFF1FC3
:10147000E20FF31FE55FF94FE0812E2F30E0F90115
:10148000EE0FFF1FE20FF31FEA51FA4F80818F7BAF
:10149000808380911803981308C0992319F0915004
:1014A000909318038FEF8C9308958823D9F3E091DC
:1014B0001903EF5FE0931903F0E0E354FD4F9083CD
:1014C000F1CFFC0101900020E9F73197BF01681BC3
:1014D000790BAC0181E70C94F804EF92FF920F9323
:1014E0001F93CF93DF93D82F8B01C42FF22E6F3F22
:1014F000760709F488C081E080935904D0937B0477
:1015000010925A0410927C048AED95E00E947206B3
:101510008F2D0E94EB00809116039091170382306B
:10152000910538F0880F991F880F991F059701972B
:10153000F1F7809158048111FCCF9C2FC13208F043
:1015400090E281E080935804809357042FEF20931A
:10155000560410925504290F2093540480933304A9
:10156000209133048D2F880F822B80933304809138
:101570003204813009F049C0109232048091330462
:101580008093BB008091BC0083FDF8CF85EC8093F5
:10159000BC00809158048130E1F380915504891793
:1015A00010F490915504A4E3B4E0EAE3F3E080E0A2
:1015B00089132DC010925B0380935A03EC2EF12CFB
:1015C00090E0E816F9063CF58EE291E00E94610A8F
:1015D000D093CA020093CB020AEC12E0C8018A5CE5
:1015E00092408E159F05ECF40F5F1F4F90915A03A8
:1015F00080915B039817A9F08AED95E00E942B0675
:10160000F8018183EBCF00E094CF85EEC0CF2D9120
:1016100021938F5FCDCF8E159F05D4F68BE491E09B
:10162000D5CFCE5F6C2F70E04AEC52E087E7DF91B8
:10163000CF911F910F91FF90EF900C94F804CF93EE
:10164000DF93DB01909118039C3078F530911903FA
:10165000682F70E0FB01E65EFC4F3323E1F0C32FFF
:10166000D0E0C354DD4F888180833150309319031B
:10167000808123E0829FC0011124855F994F1A1653
:101680001B0674F4141615065CF49A01AD01DF9183
:10169000CF910C94A40690839F5F90931803E8CF9A
:1016A00020E639E040E252E0F2CF87E691E0DF91B8
:1016B000CF910C94610A8F929F92BF92CF92DF924A
:1016C000EF92FF920F931F93CF93DF93C82ED12CED
:1016D000E601C65EDA4FFE01ED57FF4F90819F375E
:1016E00009F428C1963061F490913103992341F0B7
:1016F0006630710529F0109231039FEF909301013C
:101700007B01182F0EEF080F023108F564307105C8
:10171000F1F0F601E65EFC4F80818C30C0F490E081
:10172000FC01EE0FFF1FE80FF91FE55FF94FE081A5
:101730008E2F90E0FC01EE0FFF1FE80FF91FEA511A
:10174000FA4F808186FF03C0812F0E942E0A52EF3C
:10175000B52EB10E85E08B1558F061E070E032E0F7
:10176000E316F10411F070E060E08B2D0E94B507E4
:101770000231C8F4E12FE695E695E695F0E0E154F4
:10178000FC4F2081312F377081E090E001C0880F3D
:101790003A95EAF7E114F10421F03BE0E316F10495
:1017A00071F5822B80834601880C991CF401EF545B
:1017B000FA4F1182108286E0E816F10409F4FAC0AB
:1017C0000CF060C082E0E816F10409F496C0D4F48D
:1017D000E114F10409F4A2C0EA94EF2809F4B6C0B8
:1017E0008BE791E0DF91CF911F910F91FF90EF90E8
:1017F000DF90CF90BF909F908F900C94610A80955E
:101800008223D0CF33E0E316F10409F4B6C084E0BC
:10181000E816F10429F7023108F08CC0CD57DF4FEC
:1018200088818F3711F084E08883F601E65EFC4FF3
:1018300080818F3FA9F090E0FC01EE0FFF1FE80FC1
:10184000F91FE55FF94FE0818E2F90E0FC01EE0F6C
:10185000FF1FE80FF91FEA51FA4F808186FD6AC029
:101860004FEF5FEF6FEF7FEF812FDF91CF911F91F0
:101870000F91FF90EF90DF90CF90BF909F908F904F
:101880000C941F0B3CE0E316F10409F49FC004F52F
:101890003AE0E316F10409F44DC08BE0E816F104D8
:1018A00009F09ECF023108F045C062E0812F0E940E
:1018B0005003CD57DF4F88818F3711F08BE088833D
:1018C000F401EF54FA4F81E090E09183808332C0BD
:1018D0003FE0E316F10409F481C080E6E816F10464
:1018E00049F13DE0E316F10409F07ACFCD57DF4F1F
:1018F00088818F37F9F08DE00FC085E08B15D0F02F
:10190000023120F460E0812F0E945003CD57DF4F59
:1019100088818F3779F082E088830CC0023150F4DF
:1019200060E0812F0E945003CD57DF4F88818F37B1
:1019300009F01882DF91CF911F910F91FF90EF90E6
:10194000DF90CF90BF909F908F900895023190F7D5
:10195000FE01ED57FF4F8081833021F460E0812F3D
:101960000E94F60261E0812F0E945003CD57DF4FA5
:1019700088818F37F9F281E0CFCF133041F08BEFC0
:10198000810F823020F087EF810F833098F661E07D
:10199000812F0E94500361E0812F0E94500360E07C
:1019A000812F0E94F602CD57DF4F88818F3711F2C9
:1019B00083E0B2CF1251123008F0BCCFCD57DF4FC9
:1019C00088818F3709F4B6CF86E0A6CFCD57DF4F99
:1019D00088818F3709F4AECF8CE09ECFCD57DF4F93
:1019E00088818F3709F4A6CF8FE096CF0F931F938E
:1019F000CF93DF9381E0809332038091310388237A
:101A000029F0109231038FEF809301011092C203ED
:101A10001092BF0310922E031092C3031092C003C2
:101A200010922F031092C4031092C103109230033E
:101A30000AE113E0C0E0DFEF82EF8C0F62E070E0BC
:101A40008630C0F18EEF8C0F61E070E0823190F54E
:101A50008C2F0E942403F801D1938F01CF5FC431F2
:101A600059F71092290410922804E1E1F4E0AAE168
:101A7000B4E08FE781932D913D91232B21F0ED016F
:101A800022971982188294E0E731F90799F71092AA
:101A9000F8031092F7031092190310921803109292
:101AA0000C0410920B0410923203DF91CF911F911E
:101AB0000F9108958C2F0E945B0BCDCF4F925F92B8
:101AC0006F927F928F929F92AF92BF92CF92DF924E
:101AD000EF92FF920F931F93CF93DF93CDB7DEB7B3
:101AE0002D970FB6F894DEBF0FBECDBF162F7A012B
:101AF000893609F441C408F001C1813509F450C1A7
:101B000008F0B9C0813309F46CC6803509F402C30A
:101B1000803309F05BC1DA01FC914F2F50E08091D6
:101B20003106909132064817590708F04DC01296B9
:101B30007C91129777957727779511968C911197CD
:101B4000780F14966C91149767956627679513968E
:101B50008C911397680F16962C911697279522272C
:101B6000279515963C91320F20913706222359F084
:101B7000729FC0011124792F269FC0011124692F63
:101B8000239F90011124E0913D06809138069091A9
:101B9000390620913A06E213CFC6B3E0FB9F800DD1
:101BA000911D1124E0913A06E80FF92FF11D708381
:101BB000E0913B06E80FF92FF11D608320913C0670
:101BC000820F911DFC013083E0913806F0913906B7
:101BD000309709F4FBC080913306909134069A83C4
:101BE0008983DF01119680818987E0914206F09117
:101BF000430620914406322F309580912F06908124
:101C0000922B9887882309F4A2C6808183238F832F
:101C10008F818C8388E08B8358856F8149853B81D8
:101C20002C8189819A81508347FD252F3A95208305
:101C3000262F39F0441F00C000006083000000C060
:101C4000F2CF38E04D9160830000019761F7F09387
:101C50004306E093420649873B832C839A8389831A
:101C60000E94A10360933E0670933F068093400656
:101C700090934106ABC0823609F450C5843609F40E
:101C80009BC68F3509F0A2C0DA019C9111968C9108
:101C90001197911128C513968C90B0E88B9E400146
:101CA0001124FA012281820E911CA580F0E8AF9EDA
:101CB00090011124DA011496AC90A20EB32EB11C3F
:101CC00090910001891709F468C39F3F09F07EC015
:101CD00080930001E2ECF0E014911F3F09F476C01C
:101CE000113009F4DDC308F4BEC3123009F4FAC39D
:101CF00017FD6CC061E00E94500359C3803709F49E
:101D0000B2C130F58D3609F4F3C28F3609F455C2ED
:101D10008B3609F05BC080EF0E94DE008CE60E94EB
:101D2000DE001EEF84EF810F863008F0A6C282E04D
:101D30000E94DE008AE00E94DE008DEF810F82307B
:101D400008F49EC289EF810F833008F09FC298C2C9
:101D5000883709F42EC18A3709F400C28637B1F5F5
:101D6000DA0111969C91119795FF22C08CE891E0C1
:101D70002D960FB6F894DEBF0FBECDBFDF91CF9189
:101D80001F910F91FF90EF90DF90CF90BF90AF9099
:101D90009F908F907F906F905F904F900C94610A0E
:101DA00080EF0E94DE0082E50E94DE0081E0E1C259
:101DB000FA01808196FB332730F921E023279871BF
:101DC000983009F44BC0C8F4992329F12D960FB629
:101DD000F894DEBF0FBECDBFDF91CF911F910F9161
:101DE000FF90EF90DF90CF90BF90AF909F908F903B
:101DF0007F906F905F904F900895903109F460C08C
:101E0000983121F72091010112160CF48DC08FEF4B
:101E100080930101DBCF91E09093590480937B0480
:101E200010925A0410927C0402E0011778F4F70132
:101E3000E00FF11D61816795662767958081680FC6
:101E40008AED95E00E9472060E5FEFCF81E00E945E
:101E5000EB0083E191E00197F1F7B8CF12969C91E6
:101E6000129713964C91663021F5B0E84B9FB00164
:101E70001124690F711D4581479544274795948129
:101E8000490F2D960FB6F894DEBF0FBECDBFDF9180
:101E9000CF911F910F91FF90EF90DF90CF90BF9067
:101EA000AF909F908F907F906F905F904F900C9429
:101EB0006D0A479544274795490F6FEF7FEFE1CFB4
:101EC000E0910101E7301CF08CEA91E051CF1296CD
:101ED0003C91129713969C916630F9F4B0E89B9F61
:101EE000A0011124430F511DD70115969C91159700
:101EF00097959927979514963C91930FEF5FE093F0
:101F00000101B5E0EB02F0011124E153FC4F8083A5
:101F1000528341839383248359CF9795992797952B
:101F2000930F4FEF5FEFEACF90E0622F022E000C8D
:101F3000770B35E0492F50E06417750764F0349F44
:101F4000F001359FF00D1124E153FC4F40814817FB
:101F500019F09F5FEFCF90E085E0492F50E06417C4
:101F600075071CF19830F8F4FA0131968E9FD00174
:101F70008F9FB00D1124A153BC4F3C91849FF00161
:101F8000859FF00D1124E153FC4F308311964D9144
:101F90005C9112975283418313963C91139733833C
:101FA00014963C9134839F5FD8CF21502093010138
:101FB0000DCF623088F0FA018181F0E88F9F9001A7
:101FC0001124DA018C91820F932F911D009721F03B
:101FD0009093170380931603809131038111F6CEFD
:101FE00010E08EEE810F823028F466E070E0812FE1
:101FF0000E945B0B1F5F1431A1F781E080933103D6
:1020000010925B0310925A0310925A0410927C04AF
:1020100010925804809357041092320461E082E1D8
:102020000E94F60261E083E10E94F6028091B9000D
:102030008E7F8093B9008091B9008D7F8093B90025
:1020400088E48093B80085E48093BC0089E196E041
:1020500090937D0380937C038AE196E090938103C3
:1020600080938003B3CE653008F4B0CEFA011081BE
:102070008EEF810F823108F0A9CE0181C280D3801A
:10208000F480E12FF0E0E65EFC4F80818C30C0F4FC
:1020900090E0FC01EE0FFF1FE80FF91FE55FF94F1D
:1020A000E0818E2F90E0FC01EE0FFF1FE80FF91F7B
:1020B000EA51FA4F808186FF03C0812F0E942E0AC9
:1020C000F0E8FF9EA00111244D0D511D20E8C29E95
:1020D000B0011124600F711D812F0E941F0B64E05D
:1020E00070E0812F2D960FB6F894DEBF0FBECDBFE6
:1020F000DF91CF911F910F91FF90EF90DF90CF90E4
:10210000BF90AF909F908F907F906F905F904F9017
:102110000C945B0BDA0111968C91B0E88B9F9001C7
:102120001124FA018081820F932F911D9093CE0389
:102130008093CD032FB7F8948091C5039091C60387
:10214000A091C703B091C8032FBF8093C903909398
:10215000CA03A093CB03B093CC0338CE623008F40B
:1021600035CEDA0111968C91B0E88B9F9001112445
:10217000FA018081820F932F911D0097D9F09093DF
:10218000030180930201209102013091030188E252
:1021900090E0B9010E94821F70932B0460932A047F
:1021A00080ED97E0B9010E94821F70930E04609346
:1021B0000D040CCE81E090E0E2CF623008F406CE50
:1021C000DA0111966C91119770E01230A1F012961D
:1021D0008C91B0E88B9FC0011124682B792B1330B0
:1021E00051F0FA01838190E090E4899F902D882737
:1021F0001124682B792BD7018C912D960FB6F8946A
:10220000DEBF0FBECDBFDF91CF911F910F91FF9029
:10221000EF90DF90CF90BF90AF909F908F907F9086
:102220006F905F904F900C948E08123108F07ACD29
:1022300080E00E94DE0081E00E94DE008BE00E94D0
:10224000DE0081E00E94DE0081E00E94DE0081E08D
:102250000E94DE0088E00E94DE0081E00E94DE0035
:102260008CE00E94DE0081E00E94DE008DE00E9492
:10227000DE0081E00E94DE0055CD113009F05DCD19
:1022800083E00E94DE0088E00E94DE00123130F41C
:1022900084E00E94DE008EE00E94DE0080EF810F6D
:1022A000823030F486E00E94DE0081E00E94DE0091
:1022B0008FE70E94DE001F5F123109F0B6CF87EF73
:1022C0002D960FB6F894DEBF0FBECDBFDF91CF9134
:1022D0001F910F91FF90EF90DF90CF90BF90AF9044
:1022E0009F908F907F906F905F904F900C94DE0046
:1022F000662309F46BCDFA01008180EF0E94DE00B5
:102300008EE60E94DE00802F0E94DE000431B8F6C7
:1023100010E0F801E356FA4F80810E94DE00000FC2
:10232000111F98012F543A4F7901D9018C918F7761
:102330000E94DE00F701808191819C012078232B8F
:1023400039F0880F892F881F990B8F770E94DE0044
:10235000F801EF54FA4F808191819C012227307C53
:10236000232B09F4ACCF990F880B990F982F881F56
:102370008F770E94DE00A3CF80EF0E94DE008AE606
:102380000E94DE0012EF8FE7163008F4812F0E94C2
:10239000DE001F5F1630B9F792CFE2ECF0E0149147
:1023A00017FD14CD61E00E945003112319F0123083
:1023B00009F030C12401092C000C6608770860E0A0
:1023C00072E18AE790E0A30192010E94131F2A871D
:1023D0003B874C875D8769017A01B1E0CB1AD10850
:1023E000E108F108EFEFCE16D104E104F10409F0A1
:1023F0000CF4E9C060E472E48FE090E0A301920184
:102400000E94131F69017A01F1E0CF1AD108E10897
:10241000F108123009F08CC082E02FEFC216D1040F
:10242000E104F104C9F0C4F060E970ED83E090E0EC
:10243000A30192010E94131F69017A0161E0C61A8B
:10244000D108E108F1088FEFC816D104E104F104C6
:1024500011F00CF03CC383E09091B100987F892B80
:102460008093B100B7C014BC15BC94B5926094BD04
:1024700095B5916095BD282F30E0F901EA57FF4FDF
:10248000E491F0E0EE0FFF1FEE58FF4F459154919D
:10249000F901E656FF4FE491E0930B0310E082CF81
:1024A000109280001092810090918100986090932A
:1024B000810090918100916090938100282F30E0FD
:1024C000F901EA57FF4FE491F0E0EE0FFF1FEE58DD
:1024D000FF4F45915491F901E656FF4FE491E09387
:1024E0000A0360CF1092B0001092B1009091B0003A
:1024F00092609093B0009091B10091609093B10080
:10250000282F30E0F901EA57FF4FE491F0E0EE0F99
:10251000FF1FEE58FF4F459154915093A9034093EC
:10252000A803F901E656FF4FE491E093AA033ACFDE
:102530009FEFC916D104E104F10409F00CF468C05E
:1025400068E478EE81E090E0A30192010E94131FFD
:1025500069017A01A1E0CA1AD108E108F108112342
:1025600009F4CEC2BFEFCB16D104E104F10411F09F
:102570000CF0CFC2C3C264E274EF80E090E0A3012C
:1025800092010E94131F69017A01B1E0CB1AD108B0
:10259000E108F10885E0EFEFCE16D104E104F10483
:1025A00009F008F459CF62E17AE780E090E0A301F6
:1025B00092010E94131F69017A0191E0C91AD108A2
:1025C000E108F108B8C281E0111146CF95B5987FB6
:1025D000892B85BD2FEF3FEFA901A114B10409F0AC
:1025E00053C0113009F45DC0123009F46CC01111F0
:1025F000EDCBC7BC2093100330931103409312031B
:102600005093130380916E00826080936E00DECB46
:1026100082E0DACF2401092C000C6608770860E01C
:1026200072E18AE790E0A30192010E94131F690101
:102630007A0161E0C61AD108E108F10891E0C114FD
:10264000D10481E0E806F10484F068E478EE81E0EA
:1026500090E0A30192010E94131F69017A0191E0A9
:10266000C91AD108E108F10893E0113009F0B2CF9E
:1026700080918100887F892B809381002FEF3FEF2D
:10268000A901A114B10469F09401220F331FD501EF
:102690000E94AA1F28EE33E040E050E00E94451F50
:1026A000A0CFD0928900C092880020930C03309371
:1026B0000D0340930E0350930F0380916F008260CF
:1026C00080936F0083CBC092B3002093AB03309311
:1026D000AC034093AD035093AE03809170008260D1
:1026E0008093700073CB913009F070CB2D960FB6AC
:1026F000F894DEBF0FBECDBFDF91CF911F910F9138
:10270000FF90EF90DF90CF90BF90AF909F908F9011
:102710007F906F905F904F900C9424032091280439
:1027200030912904263031050CF058C0DA018C9123
:102730008093150311969C9111979093140313960F
:10274000CC90B0E8CB9EA0011124F701C280C40E4A
:10275000D52ED11C0D2C000CEE08FF082F5E3B4F30
:10276000D9018C936CE070E00E945B0B6CE070E030
:10277000809114030E945B0B8BE090E00E94B71FD6
:102780008C012091140380911503F801808321832B
:1027900091E0281390E0D80112969C9361E00E948A
:1027A000500360E0F80181810E945003D801179620
:1027B000CD92DD92ED92FC921A978091280490912F
:1027C0002904FC01EE0FFF1FE65EFB4F118300831F
:1027D00001969093290480932804F8CA8DEB91E028
:1027E000C7CAFA01B0800B2D10E082818795882737
:1027F00087959181890FE82EF12C80913806909170
:102800003906009711F00E94532090913D06809167
:102810003A06981385C083E090E0E89E6001E99E47
:10282000D00CF89ED00C1124D0923406C0923306FE
:10283000C6010E94B71F909339068093380600970F
:1028400009F471C0A60170E060E00E94DC20F09203
:102850003206E092310680913006882349F080915B
:1028600035069091360697FD03C060E00E94500344
:10287000109336060093350680913006882341F088
:1028800061E08B2D0E94500360E08B2D0E94F602C8
:10289000F801EA57FF4FE491F0E0EE0FFF1FEE580A
:1028A000FF4F859194919093430680934206F801DF
:1028B000E656FF4FE491E0934406809135069091EF
:1028C000360697FD08C061E00E94500360E08091E9
:1028D00035060E94F60281E080933006409133066F
:1028E0005091340670E060E080913806909139068E
:1028F0002D960FB6F894DEBF0FBECDBFDF91CF91FE
:102900001F910F91FF90EF90DF90CF90BF90AF900D
:102910009F908F907F906F905F904F900C94DC20F1
:1029200084E090E07ACF1092340610923306109231
:102930003206109231068FCF440F551F440F551F9A
:10294000840F951FE80FF92FF11D10822BC980818C
:1029500083238F838F818E8388E08D8358856F8159
:1029600049853D812E8189819A81508347FD252F9C
:1029700000C000C0208300C000C000C000C000C074
:1029800060830000262F3A9541F0441F000000C0EC
:1029900000C000C000C000C0E8CF38E04D9100C0CA
:1029A000608300C0019709F7F0934306E093420665
:1029B00049873D832E8352C980910B0490910C046A
:1029C000863091050CF065C0DA01CC901196DC9050
:1029D0002D2D30E02631310551F521E0FC01ED5C73
:1029E000FC4F2083FC01EC5FFB4FC08282509C4F68
:1029F000FC01D0826FE070E08C2D0E945B0B009197
:102A00000B0410910C04C8010E9423077C01892B40
:102A1000B1F4B8016F5F7F4F70930C0460930B04A7
:102A200080910D0490910E040E94961FBECB2B3016
:102A3000310511F422E1D2CF8AEF91E099C980EFFC
:102A40000E94DE0085E60E94DE008C2D0E94DE00E2
:102A50008D2D0E94DE0009EF13E02DEFC22E23E042
:102A6000D22ED8018D918D018F770E94DE00F80162
:102A700031978081881F8827881F0E94DE00C0163A
:102A8000D10679F7C701F7FE8FC991958195910914
:102A90008BC98FE292E06CC984E02FEFC216D1049B
:102AA000E104F10409F008F491CDCA84DB84EC84DC
:102AB000FD848AE0F594E794D794C7948A95D1F77A
:102AC000F1E0CF1AD108E108F10885E07FCD68E494
:102AD00078EE81E090E0A30192010E94131F69014A
:102AE0007A0161E0C61AD108E108F1088FEFC81633
:102AF000D104E104F10411F00CF03DCD84E0ACCC44
:102B000083E0AFEFCA16D104E104F10409F00CF43C
:102B10005DCD62E17AE780E090E0A30192010E943E
:102B2000131F69017A01F1E0CF1AD108E108F10819
:102B3000112309F4B1CF86E0EFEFCE16D104E10402
:102B4000F10409F008F488CCCA84DB84EC84FD84A9
:102B50009AE0F594E794D794C7949A95D1F7B1E0A9
:102B6000CB1AD108E108F10887E076CC1F920F92CA
:102B70000FB60F9211242F933F934F935F936F9350
:102B80007F938F939F93AF93BF93EF93FF93809126
:102B9000AB039091AC03A091AD03B091AE03892B30
:102BA0008A2B8B2BD1F19091AA03E091A803F0918D
:102BB000A9038081892780838091AB039091AC0326
:102BC000A091AD03B091AE03181619061A061B06A4
:102BD0009CF48091AB039091AC03A091AD03B091B4
:102BE000AE030197A109B1098093AB039093AC03A5
:102BF000A093AD03B093AE03FF91EF91BF91AF915E
:102C00009F918F917F916F915F914F913F912F9104
:102C10000F900FBE0F901F901895809100010E9499
:102C20002403EACF1F920F920FB60F9211242F9315
:102C30003F934F935F936F937F938F939F93AF9344
:102C4000BF93EF93FF938DE794E00E941502FF91ED
:102C5000EF91BF91AF919F918F917F916F915F9114
:102C60004F913F912F910F900FBE0F901F9018958D
:102C70001F920F920FB60F9211242F938F939F9351
:102C8000EF93FF93E0918D04F0918E048081E091A9
:102C90009304F091940482FD1BC09081809196046E
:102CA0008F5F8F7320919704821741F0E091960413
:102CB000F0E0E358FB4F958F80939604FF91EF91DE
:102CC0009F918F912F910F900FBE0F901F9018958D
:102CD0008081F4CF1F920F920FB60F9211242F9381
:102CE0003F938F939F93AF93BF938091C503909130
:102CF000C603A091C703B091C8033091A30323E09A
:102D0000230F2D3758F50196A11DB11D2093A30364
:102D10008093C5039093C603A093C703B093C803E1
:102D20008091A4039091A503A091A603B091A7035D
:102D30000196A11DB11D8093A4039093A503A093B8
:102D4000A603B093A703BF91AF919F918F913F913D
:102D50002F910F900FBE0F901F90189526E8230F0C
:102D60000296A11DB11DD2CF1F920F920FB60F92E6
:102D700011242F933F934F935F936F937F938F9380
:102D80009F93AF93BF93EF93FF938091B900887F98
:102D9000803609F44AC0F0F5883209F4A7C018F566
:102DA000803109F49BC0B8F4882309F4F9C0883055
:102DB00009F494C0FF91EF91BF91AF919F918F91D2
:102DC0007F916F915F914F913F912F910F900FBE27
:102DD0000F901F901895883109F488C0803251F700
:102DE0008093560414C0803409F49DC040F48033AD
:102DF000B9F38833F9F68093560485ECB0C080357A
:102E000009F485C0883509F496C0883499F60E9483
:102E1000E805D0CF883909F48CC038F5883729F017
:102E200050F4883611F0803729F683E080935804F7
:102E30001092A20357C0883809F47BC0803919F07A
:102E4000803809F0B7CF8091A203803208F071C0BA
:102E5000E091A20381E08E0F8093A2038091BB00DA
:102E6000F0E0EE57FC4F80833DC0803B39F0E0F44A
:102E7000803A09F479C0883A09F09CCF84E08093C5
:102E8000580410927F0310927E03E0917C03F0912E
:102E90007D03099580917E0381110FC081E08093AD
:102EA0007E0310925C0309C0803C09F4A6CF883CE5
:102EB00009F4A3CF883B09F07DCFE0917F0381E047
:102EC0008E0F80937F03F0E0E45AFC4F8081809363
:102ED000BB0090917F0380917E0329C080913304D1
:102EE0008093BB0085EC8093BC0064CF9091550427
:102EF00080915404981758F5E091550481E08E0FA5
:102F000080935504F0E0EC5CFB4F8081E9CFE091C9
:102F1000550481E08E0F809355048091BB00F0E052
:102F2000EC5CFB4F8083909155048091540498177A
:102F3000C8F285E8D8CFE091550481E08E0F8093E8
:102F400055048091BB00F0E0EC5CFB4F80838091E6
:102F5000570481115CCF81E08093320484EA80932E
:102F6000BC001092580426CF85EC8093BC001092D0
:102F700058048091A203803230F4E091A203F0E083
:102F8000EE57FC4F10826091A20370E0E091800345
:102F9000F091810382E893E009951092A2030ACF91
:102FA0001092560434CF1F920F920FB60F92112435
:102FB0002F933F934F935F936F937F938F939F9341
:102FC000AF93BF93CF93DF93EF93FF938091390338
:102FD000C0910A06D0E087FF24C0109285001092AD
:102FE0008400809139038F5F809339038091390386
:102FF000082E000C990B8C179D0724F4809139033F
:103000008C30C4F1809184009091850004968034C6
:103010009C4908F47AC080918400909185000496C0
:1030200076C080913903082E000C990B8C179D07F0
:10303000C4F6E09139038E2FEE0F990BFC01EE0FD1
:10304000FF1FE80FF91FEA51FA4F808186FFC9CFB1
:10305000E09139038E2FEE0F990BFC01EE0FFF1F4D
:10306000E80FF91FEA51FA4F808160E08F730E94E8
:10307000F602B7CF2091840030918500E0913903AA
:103080008E2FEE0F990BFC01EE0FFF1FE80FF91FBB
:10309000EA51FA4F81819281820F931F90938900A8
:1030A00080938800E09139038E2FEE0F990BFC017D
:1030B000EE0FFF1FE80FF91FEA51FA4F808186FFDC
:1030C00011C0E09139038E2FEE0F990BFC01EE0F2A
:1030D000FF1FE80FF91FEA51FA4F808161E08F73FB
:1030E0000E94F602FF91EF91DF91CF91BF91AF91D6
:1030F0009F918F917F916F915F914F913F912F9110
:103100000F900FBE0F901F90189580E49CE990934C
:103110008900809388008FEF80933903E3CF10926A
:10312000800410927F0448EE53E060E070E040932A
:1031300081045093820460938304709384048EE02E
:1031400091E090937E0480937D0485EC90E09093D1
:103150008A048093890484EC90E090938C0480939B
:103160008B0480EC90E090938E0480938D0481EC2E
:1031700090E09093900480938F0482EC90E0909381
:1031800092048093910486EC90E090939404809351
:10319000930410929604109297041092980410923F
:1031A00099042AE135E010925B0510925A0530939C
:1031B0005E0520935D0580E490E090936005809328
:1031C0005F051092610510926205109264051092DD
:1031D00063051092650510926705109266051092BE
:1031E00069051092680510926B0510926A0510929D
:1031F0006D0510926C0510926F0510926E0510927D
:10320000710510927005109273051092720510925C
:1032100079051092780510927B0510927A0510922C
:103220007D0510927C0510927F0510927E0510920C
:103230008D0510928C0510925C0510929A051092E3
:103240009C0510929B0581E08093D905EEE8F0E0A3
:10325000F0938105E0938005E8E9F0E0F0938305C1
:10326000E0938205E2EAF0E0F0938505E0938405BF
:10327000ECEAF0E0F0938705E0938605E6EBF0E0FA
:10328000F0938905E0938805E0ECF0E0F0938B057E
:10329000E0938A05EAECF0E0F0938F05E0938E0569
:1032A000EBECF0E0F0939105E0939005E1E7F5E0B9
:1032B000F0939305E0939205309375052093740580
:1032C000E5E4F5E0F0939505E093940530937705F8
:1032D0002093760526ED30E03093970520939605F0
:1032E0001092DD051092DC054093DE055093DF055A
:1032F0006093E0057093E10520E231E03093DB0557
:103300002093DA05109230062FEF3FEF3093360608
:10331000209335061092370610923906109238061F
:1033200010923E0610923F061092400610924106FF
:1033300080933D0680933A0610923B0692E090936C
:103340003C0680932F06EBE0F6E048EB5BE08091D3
:103350000A068C30B8F491E0980F90930A068083A7
:1033600090E0DC01AA0FBB1FA80FB91FAA51BA4FEA
:1033700012965C934E931197339686E0EF32F807DE
:1033800031F708952083F8CF789484B5826084BDA6
:1033900084B5816084BD85B5826085BD85B5816059
:1033A00085BD80916E00816080936E0010928100D7
:1033B0008091810082608093810080918100816092
:1033C0008093810080918000816080938000809153
:1033D000B10084608093B1008091B00081608093DF
:1033E000B00080917A00846080937A0080917A00A6
:1033F000826080937A0080917A00816080937A0065
:1034000080917A00806880937A001092C10084E1F4
:1034100080939A0580919B0590919C050E94532072
:10342000C0919A05D0E0CE0101960E94B71F9093FB
:103430009C0580939B05FC01EC0FFD1F108202E0B0
:10344000DC010C9316E011961C93AE014250510919
:103450006BEA72E002960E94E3208EE898E0909377
:10346000BA038093B90382EE97E09093B8038093F8
:10347000B70385EB97E09093B6038093B50383E0A1
:103480009AE09093B4038093B3038BE59BE0909311
:10349000B2038093B1038CEA99E09093B0038093D8
:1034A000AF038EE59DE09093BC038093BB0386EF52
:1034B0009CE09093BE038093BD03E0918D04F09156
:1034C0008E040083E0918904F0918A041082E091D7
:1034D0008B04F0918C0480E1808310929504E0913C
:1034E0009104F09192041083E0918F04F091900484
:1034F000808180618083E0918F04F09190048081CD
:1035000088608083E0918F04F091900480818068CE
:103510008083E0918F04F091900480818F7D80837F
:103520008091D90581114FC061E08DE00E94500368
:1035300062ED70E080E090E00E94C60361E08DE003
:103540000E94F60268E270E080E090E00E94C6030C
:1035500060E08DE00E94F60262ED70E080E090E0B5
:103560000E94C60361E08DE00E94F60268E270E00E
:1035700080E090E00E94C60360E08DE00E94F602C9
:103580006AEF70E080E090E00E94C603C6E062ED62
:1035900070E080E090E00E94C60361E08DE00E9450
:1035A000F60268E270E080E090E00E94C60360E00E
:1035B0008DE00E94F602C15051F76DE770E080E0A7
:1035C00090E00E94C6038DE794E090939905809364
:1035D000980590935B0580935A050E94F60C52E083
:1035E000452E512C66246394712C25E0922E38E3ED
:1035F000C32ED12C40E0E42E40E0F42E8091C20393
:10360000882349F069B18091BF0368236C7F40E053
:1036100080E00E94C1098091C303882379F063B1DF
:1036200086B16F73B0E48B9FC0011124682B809129
:10363000C003682340E081E00E94C1098091C40377
:10364000882359F066B18091C1038F7066956695A5
:10365000682340E082E00E94C109C1E080919805A2
:1036600090919905DC01ED91FC910084F185E02DAC
:103670000995892B09F4C9C1809198059091990504
:10368000DC01ED91FC910284F385E02D09958F3FDB
:10369000980721F3282F30916505332309F491C051
:1036A000873F09F07EC010926505A0915D05B0913D
:1036B0005E056C916137C1F1693709F05CC0E0913A
:1036C0009205F0919305309749F2809166059091AB
:1036D00067058330910560F430E020E050E040E081
:1036E00070E060E080917405909175050995B6CF02
:1036F000BD016D5F7F4F03970E947801BC016D5F34
:103700007F4F80E00E944801E0915D05F0915E05E9
:103710009F012D5F3F4F428150E0618170E0E09159
:103720009205F0919305DECF80918E0590918F05E3
:10373000892B09F493CFBD016F5F7F4F80916605A0
:103740009091670501970E947801BC016F5F7F4FE0
:1037500080E00E94480160915D0570915E056F5F99
:103760007F4FE0918E05F0918F0580917A059091C1
:103770007B05099573CFE0919005F0919105309705
:1037800009F46CCF9D012F5F3F4F4091660550912A
:1037900067054150510980917C0590917D050995FF
:1037A0005DCF60916605709167050E944801809128
:1037B000660590916705019690936705809366056D
:1037C0004DCF60916305709164056115710509F431
:1037D000AEC087FDACC06150710970936405609301
:1037E00063050E9448018091630590916405892BCF
:1037F00009F034CF80916105882309F42FCF803DF3
:1038000009F481C040F4803941F1803C09F467C07B
:103810001092610523CF843FD1F1853F09F44BC05D
:10382000803EB1F7E0918005F0918105309781F3FA
:10383000A0915D05B0915E054C9120E8429FA001EA
:10384000112411968C91480F511D60916205809151
:103850006805909169050995DBCFE0918205F091AB
:1038600083053097A9F2A0915D05B0915E054C915A
:1038700080E8489FA001112411968C91480F511D9A
:103880006091620580916A0590916B05E4CFE091AB
:103890008805F0918905309709F4BACFA0915D05AC
:1038A000B0915E054C9150E011966C91809170053D
:1038B00090917105D0CFE0918A05F0918B053097FA
:1038C00009F4A6CFA0915D05B0915E054C9150E042
:1038D00011966C918091720590917305BCCFE09127
:1038E0008405F0918505309709F492CFA0915D058C
:1038F000B0915E054C9150E06091620580916C053D
:1039000090916D05A8CFE0918605F09187053097DD
:1039100009F47ECFA0915D05B0915E054C9150E019
:103920006091620580916E0590916F0594CF203F64
:1039300030F4982F9F7090936205282F207F203FAE
:10394000F1F190F4203CB1F150F4203909F086CE29
:103950005092640540926305209361057FCE203D1F
:1039600049F1203EA9F37ACE293F09F442C028F458
:103970008CE0820F823060F371CE2F3F09F06ECE63
:103980001092640510926305109261051092620511
:1039900090E080E020915F053091600582179307E9
:1039A000A8F4E0915D05F0915E05E80FF91F108223
:1039B0000196F0CF7092640560926305CDCFC093FD
:1039C0006505109267051092660548CE1092650550
:1039D0001092670510926605E0919605F0919705A3
:1039E00080917E0590917F05309709F437CE099537
:1039F00035CEE0919405F0919505309709F42ECEDF
:103A00008091760590917705F2CF8FB7F894409129
:103A1000C5035091C6036091C7037091C8038FBF5F
:103A200080912E0490912F04A0913004B091310424
:103A3000009102011091030130E020E0481B590B76
:103A40006A0B7B0B041715072607370708F0CFC151
:103A5000800F911FA21FB31F80932E0490932F04F9
:103A6000A0933004B093310480912C0490912D04E4
:103A70009C012F5F3F4F30932D0420932C04209105
:103A80002A0430912B04281739070CF0B4C0109287
:103A90002D0410922C04A0902804B0902904A114A5
:103AA000B10409F4A8C00091260410912704F8017C
:103AB000EE0FFF1FE65EFB4FC081D1818A81882314
:103AC00021F061E088810E94500360E088810E94BB
:103AD000F60283E090E00197F1F761E088810E94AF
:103AE000F60283E290E00197F1F760E088810E949E
:103AF000F6028A81882321F060E088810E945003C9
:103B00000E94A1036B837C838D839E8389810E94A5
:103B1000CD02892B99F40E94A1032B813C814D8118
:103B20005E81621B730B840B950B2F813885498551
:103B30005A85261737074807590740F70E94A103FF
:103B40006B837C838D839E8389810E94CD02892B28
:103B500099F00E94A1032B813C814D815E81621B03
:103B6000730B840B950B2F81388549855A85261751
:103B700037074807590740F70E94A1032B813C8172
:103B80004D815E8100931904A1E0AA1AB1080A15BB
:103B90001B050CF0E8C00F5F1F4F10932704009324
:103BA0002604CB01821B930BB6010E94821F862F35
:103BB0008F7780931804660F672F661F770B7195B8
:103BC0006093170480EF0E94DE0083E60E94DE000F
:103BD000E0911904F0E0EF5EFB4F80810E94DE006F
:103BE000809118040E94DE00809117040E94DE007C
:103BF00087EF0E94DE0080910F04909110049C01D9
:103C00002F5F3F4F3093100420930F0420910D0439
:103C100030910E04281739070CF064C000910B0492
:103C200010910C040115110509F45CC080900A0480
:103C3000A82CB12CC5010E942307EC01F501EC5F13
:103C4000FB4F2080F501E250FC4F308010921004B1
:103C500010920F04839480920A0401501109A01657
:103C6000B10614F010920A042097B1F48091F90380
:103C70009091FA03890F9091FB03890F9091FC03B7
:103C8000890FC1E0D0E09091FD03891302C0D0E01C
:103C9000C0E0D195C195D10980EF0E94DE0085E694
:103CA0000E94DE00822D0E94DE00832D0E94DE0035
:103CB00009EF13E0F80181918F010E94DE008DEF82
:103CC00093E080179107B1F7CE01D7FF03C091951C
:103CD000819591090E94DE0080E00E94DE0087EF5E
:103CE0000E94DE00CAE1D5E012EF1630C8F4FE01F2
:103CF000ED57FF4F8081823099F48091F7039091C6
:103D0000F803012E02C0959587950A94E2F780FF8B
:103D100007C0812F0E948C03BC01812F0E94980450
:103D20001F5F2196163009F78091010187FD20C0A1
:103D3000C0E02C2F30E080910101082E000C990B7F
:103D400082179307ACF0929EF001939EF00D112420
:103D5000E153FC4F618172812481438180810E9403
:103D60006D0ACF5FE6CF109227041092260419CF78
:103D70008091CD039091CE03892B09F438C08FB781
:103D8000F8944091C5035091C6036091C7037091A8
:103D9000C8038FBF8091C9039091CA03A091CB0340
:103DA000B091CC03481B590B6A0B7B0B2091CD03C0
:103DB0003091CE03A8EEB3E02A9FC0012B9F900D57
:103DC0003A9F900D1124B0E0A0E084179507A60754
:103DD000B70768F40E94F60C88E198E00FB6F894F3
:103DE000A895809360000FBE90936000FFCFE11410
:103DF000F10409F403CC0E940102882309F4F5CBF5
:103E00000E940000F2CB80913806909139060E9402
:103E10005320809135069091360697FD03C060E0EF
:103E20000C9450030895052E97FB1EF400940E94F5
:103E30002A1F57FD07D00E94451F07FC03D04EF4F0
:103E40000C942A1F50954095309521953F4F4F4F28
:103E50005F4F089590958095709561957F4F8F4F36
:103E60009F4F08950E94671FA59F900DB49F900DCE
:103E7000A49F800D911D11240895B7FF0C94321F4B
:103E80000E94321F821B930B0895A1E21A2EAA1BD7
:103E9000BB1BFD010DC0AA1FBB1FEE1FFF1FA217FA
:103EA000B307E407F50720F0A21BB30BE40BF50BF7
:103EB000661F771F881F991F1A9469F76095709580
:103EC000809590959B01AC01BD01CF010895A29F03
:103ED000B001B39FC001A39F700D811D1124911DDE
:103EE000B29F700D811D1124911D0895991B79E0D9
:103EF00004C0991F961708F0961B881F7A95C9F77A
:103F000080950895AA1BBB1B51E107C0AA1FBB1FC8
:103F1000A617B70710F0A61BB70B881F991F5A9555
:103F2000A9F780959095BC01CD01089597FB072EC8
:103F300016F4009407D077FD09D00E94821F07FC79
:103F400005D03EF4909581959F4F089570956195A9
:103F50007F4F08950E94671FB7FF0895821B930B40
:103F60000895EE0FFF1F0590F491E02D09940F9333
:103F70001F93CF93DF938230910510F482E090E09D
:103F8000E0914706F091480630E020E0B0E0A0E084
:103F9000309799F42115310509F44AC0281B390BD3
:103FA00024303105D8F58A819B816115710589F12D
:103FB000FB0193838283FE0111C040815181028104
:103FC000138148175907E0F04817590799F41097DB
:103FD00061F012960C93129713961C933296CF01B0
:103FE000DF91CF911F910F91089500934706109391
:103FF0004806F4CF2115310551F04217530738F028
:10400000A901DB019A01BD01DF01F801C1CFEF0178
:10401000F9CF9093480680934706CDCFFE01E20F7B
:10402000F31F819391932250310939832883D7CF8D
:104030002091450630914606232B41F4209106013C
:1040400030910701309346062093450620910401E4
:10405000309105012115310541F42DB73EB740914E
:10406000080150910901241B350BE0914506F091A0
:104070004606E217F307A0F42E1B3F0B281739075B
:1040800078F0AC014E5F5F4F2417350748F04E0FB4
:104090005F1F5093460640934506819391939FCFAF
:1040A000F0E0E0E09CCFCF93DF930097E9F0FC01D4
:1040B000329713821282A0914706B0914806ED0113
:1040C00030E020E01097A1F420813181820F931F0E
:1040D00020914506309146062817390709F061C03E
:1040E000F0934606E0934506DF91CF910895EA01EB
:1040F000CE17DF07E8F54A815B819E014115510526
:10410000B1F7E901FB83EA8349915991C40FD51FA7
:10411000EC17FD0761F4808191810296840F951F51
:10412000E90199838883828193819B838A83F0E06C
:10413000E0E012968D919C9113970097B9F52D911F
:104140003C911197CD010296820F931F2091450655
:10415000309146062817390739F6309751F51092F5
:10416000480610924706B0934606A0934506BCCF7A
:10417000D383C28340815181840F951FC817D9070B
:1041800061F44E5F5F4F88819981480F591F5183B9
:1041900040838A819B81938382832115310509F0B5
:1041A000B0CFF0934806E09347069ECFFD01DC01B7
:1041B000C0CF13821282D7CFDC0101C06D93415072
:1041C0005040E0F70895FB01DC014150504048F0B9
:1041D00001900D920020C9F701C01D92415050403E
:1041E000E0F7089510E0C3E6D0E004C0FE010E94AD
:0E41F000B11F2196C436D107C9F7F894FFCF4E
:1041FE00FFFF130000004906800000000000370298
:10420E009701C4018402F501D301E701000000000B
:10421E0072064506A1061B063E062B061C064932F3
:10422E00433A20546F6F206D616E79206279746508
:10423E0073207265636569766564004932433A207E
:10424E00546F6F206665772062797465732072658E
:10425E00636569766564004D617820736572766F6B
:10426E007320617474616368656400556E6B6E6F64
:10427E00776E2070696E206D6F64650031302D622F
:10428E0069742061646472657373696E67206E6F02
:10429E007420737570706F7274656400746F6F2024
:1042AE006D616E7920717565726965730050494E46
:1042BE00475F434F4E464947204572726F723A2010
:1042CE004578636565646564206E756D6265722000
:1042DE006F6620737570706F727465642070696E8E
:1042EE00672064657669636573004552524F523A92
:1042FE0020554E4B4E4F574E2053454E534F522046
:10430E00545950452C2056414C49442053454E5348
:10431E004F5253204152452031312C20323200442D
:10432E0048545F434F4E464947204572726F723A6A
:10433E00204578636565646564206E756D6265728F
:10434E00206F6620737570706F72746564204448B8
:10435E0054206465766963657300433A5C557365F2
:10436E0072735C647A647A7A5C41707044617461D1
:10437E005C4C6F63616C5C54656D705C61726475EE
:10438E00696E6F5F6D6F6469666965645F736B6597
:10439E007463685F3330373935345C4669726D61EA
:0E43AE007461457870726573732E696E6F00CE
:00000001FF
