:100000000C94DD000C9405010C9405010C94050181
:100010000C9405010C9405010C9405010C94050148
:100020000C9405010C9405010C9414180C9483187D
:100030000C9405010C9405010C9405010C94050128
:100040000C9405010C94791C0C9405010C94050189
:100050000C9405010C9405010C9405010C94101BE3
:100060000C9405010C9405010C9405010C940501F8
:100070000C9405010C9405010C9405010C940501E8
:100080000C94B51A0C9405010C9405010C9405010F
:100090000C945A1B0C9405010C9405010C94050159
:1000A0000C9405010C9405010C9405010706050448
:1000B0000100080A0B0C0D090000000024002700B5
:1000C0002A002D00300000000000250028002B0031
:1000D0002E003100000000002300260029002C0023
:1000E0002F000404040404030405020202020403B2
:1000F00002020202060606060606040402020204C2
:100100000404080201104080401020408040800814
:100110000204018040201002011080102040402085
:100120000000000200090F0000030401000C0000A1
:1001300000000000000000000000000000000003BC
:10014000080B000202020000090400000102020084
:100150000005240010010524010101042402060504
:100160002406000107058103100040090401000274
:100170000A00000007050202400000070583024054
:1001800000000403090412010002EF0201404123B0
:10019000368000010102030141726475696E6F20AF
:1001A0004C4C430041726475696E6F204C656F6EF4
:1001B0006172646F0000681DE62411241FBECFEF3A
:1001C000DAE0DEBFCDBF12E0A0E0B1E0E4ECFDE498
:1001D00002C005900D92A23DB107D9F726E0A2ED2D
:1001E000B2E001C01D92AB35B207E1F710E0CCEDF3
:1001F000D0E004C02197FE010E948D25CB3DD107A0
:10020000C9F70E94801E0C94D5260C940000862FFE
:10021000E091EA03F091EB03309711F0BA010994F1
:100220000895862FE091E803F091E903309711F0EB
:10023000BA0109940895862FE091E603F091E7034F
:10024000309711F0BA0109940895862FE091E403E4
:10025000F091E503309711F0BA0109940895862FC3
:10026000E091E203F091E303309711F0BA010994B1
:100270000895862FE091E003F091E103309711F0AB
:10028000BA01099408950895862F642FE091EC0334
:10029000F091ED03309711F0A90109940895E091D0
:1002A000EE03F091EF03309709F009940895A091BF
:1002B0008C05B0918D05ED91FC9111970190F08125
:1002C000E02D682FCD010994982F2091BD0481E085
:1002D000213208F043C0809199048111FCCF8091B4
:1002E000BC0432E030939904909398049FEF90936C
:1002F00097041092960420939504ACE9B4E0E5E7E6
:10030000F4E090E0291331C01092740490917404C9
:10031000880F892B8093740480917304813049F590
:1003200010927304809174048093BB008091BC0090
:1003300083FDF8CF85EC8093BC00809199048230D6
:10034000E1F3809197048F3FB1F080919704803260
:10035000A1F080919704803391F084E010929B0487
:100360001092BD0410929A0408953D9131939F5FBD
:10037000C9CF85EEE0CF80E0F1CF82E0EFCF83E020
:10038000EDCF1F93CF93DF93182FEB01809153058F
:10039000909154056817790760F480915105909108
:1003A0005205C80FD91F188380E0DF91CF911F91AC
:1003B0000895E0918005F0918105309711F481E076
:1003C000F4CF81E08093500580916C0590916D058C
:1003D00009958091530590915405C817D90778F76E
:1003E000DCCFCF93DF93EC01FB0130E020E0C901CB
:1003F000880F991F8C179D0778F44081DB014D937E
:10040000BD0111979181979599279795942B9C936E
:100410002F5F3F4F3296EBCFC901DF91CF91089507
:10042000FC0180917204882311F13FB7F89482E0B7
:100430008093E9002091F200822F90E018161906AF
:1004400014F481E090E0882339F0289844E6409342
:1004500071044091F1004083222339F02091F20091
:10046000211103C02BE62093E8003FBF08958FEFD2
:100470009FEF08952FB7F89483E08093E90090915F
:10048000E800892F807295FF04C09091F20080E40B
:10049000891B2FBF08958091690481110DC082E0EE
:1004A0008093650484E0809366041092680410923F
:1004B000670481E08093690485E694E008954091A3
:1004C000DA035091DB032091D8033091D90342170E
:1004D0005307B4F49091E8009570E1F39091E8002F
:1004E00092FD19C08093F1008091DA039091DB03B3
:1004F00001968F739927892B19F48EEF8093E8006A
:100500008091DA039091DB0301969093DB03809353
:10051000DA0381E0089580E00895DF92EF92FF9280
:100520000F931F93CF93DF93D82E8A01EB017B01AA
:10053000E40EF51ECE15DF0559F0D7FE12C0FE0100
:1005400084910E945F0221968111F4CF0FEF1FEF7B
:10055000C801DF91CF911F910F91FF90EF90DF9035
:1005600008958881EECF0F931F93CF93DF931F924F
:10057000CDB7DEB782E0898342E450E060E471E009
:1005800080E80E948D020E944B02DC0112960D91C0
:100590001C910115110589F0D801ED91FC910280A3
:1005A000F381E02DBE016F5F7F4FC801099597FD74
:1005B00004C0F80100851185ECCF89810F90DF918F
:1005C000CF911F910F910895615030F02091F1006B
:1005D000FC0120830196F8CF289884E6809371046B
:1005E0000895CF93DF931F92CDB7DEB76983DC0107
:1005F000ED91FC910280F381E02D41E050E0BE01DD
:100600006F5F7F4F09950F90DF91CF91089583E041
:100610008093E9008091F200882319F08AE38093A7
:10062000E80008950E943A0290E00895CF93DF9386
:100630001F92CDB7DEB7FC018485958597FD08C074
:100640002FEF3FEF358724870F90DF91CF910895EB
:10065000CE0101960E941002019719F4898190E061
:10066000F3CF8FEF9FEFF0CF0F931F93CF93DF93D5
:100670001F92CDB7DEB78C01FC018485958597FF6D
:100680000BC0CE0101960E941002019771F489817E
:1006900090E0F80195878487F801848595850F900F
:1006A000DF91CF911F910F9108958FEF9FEFF1CFC1
:1006B000FC018485958597FD0BC09FB7F89482E077
:1006C0008093E9008091F2009FBF90E00196089529
:1006D0009FB7F89482E08093E9008091F2009FBF79
:1006E00090E0089581508F3008F047C0E82FF0E087
:1006F000E458FC4F0C948D2599039D038B039103C3
:100700009503BD03BD03BD03A003A603AA03AE0367
:10071000B403BD03B803809180008F77809380007D
:100720000895809180008F7DF9CF80918000877F30
:10073000F5CF84B58F7784BD089584B58F7DFBCFC9
:10074000809190008F778093900008958091900021
:100750008F7DF9CF80919000877FF5CF8091C00089
:100760008F778093C00008958091C0008F7DF9CF6E
:100770008091C200877F8093C2000895CF93DF935A
:10078000282F30E0F901E05EFE4F8491F901EF5F20
:10079000FE4FD491F901EE51FF4FC491CC23A1F04B
:1007A00081110E947203EC2FF0E0EE0FFF1FEC525C
:1007B000FF4FA591B491EC91ED2381E090E009F415
:1007C00080E0DF91CF91089580E090E0FACF1F9311
:1007D000CF93DF93282F30E0F901E05EFE4F849144
:1007E000F901EF5FFE4FD491F901EE51FF4FC49133
:1007F000CC23A9F0162F81110E947203EC2FF0E098
:10080000EE0FFF1FEA53FF4FA591B4918FB7F894F5
:10081000EC91111108C0D095DE23DC938FBFDF91DE
:10082000CF911F910895DE2BF8CF9091000189138D
:100830000DC0EFE3F1E0E4919FEF90930001E13010
:1008400059F038F0E33071F0E43091F060E00C944E
:10085000E70310926E00FACF90916F009D7F909306
:100860006F00F4CF909171009D7F90937100EECF57
:10087000909172009F7B90937200E8CFCF93DF93AB
:1008800090E0FC01EF5FFE4F24918E519F4FFC01E1
:1008900084918823C9F090E0880F991FFC01E854E7
:1008A000FF4FA591B491FC01EA53FF4FC591D4913C
:1008B00061110DC09FB7F8948C91209582238C9381
:1008C0008881282328839FBFDF91CF9108956230CC
:1008D00051F49FB7F8943C91822F809583238C9399
:1008E000E8812E2BEFCF8FB7F894EC912E2B2C9321
:1008F0008FBFEACF823108F08251E82FF0E0E45553
:10090000FF4FE49190917B008E2F880F880F8072AB
:100910009F7D892B80937B00E770E064E0937C00EF
:1009200080917A00806480937A0080917A0086FDBD
:10093000FCCF809178009091790008953FB7F894AA
:100940008091CD039091CE03A091CF03B091D003BD
:1009500026B5A89B05C02F3F19F00196A11DB11D1A
:100960003FBFBA2FA92F982F8827BC01CD01620F56
:10097000711D811D911D42E0660F771F881F991F11
:100980004A95D1F708958F929F92AF92BF92CF92DE
:10099000DF92EF92FF926B017C010E949E044B015B
:1009A0005C01C114D104E104F104B9F00E949E0479
:1009B000681979098A099B09683E73408105910588
:1009C00080F321E0C21AD108E108F10888EE880E10
:1009D00083E0981EA11CB11CE4CFFF90EF90DF9044
:1009E000CF90BF90AF909F908F9008958F929F92DD
:1009F000AF92BF92CF92DF92EF92FF920F931F932D
:100A0000CF93DF936C017B018A0180910C018823D5
:100A100009F45CC080917204882309F457C0809166
:100A2000DE0380FF05C08091E00082608093E000DB
:100A3000E801B12C8AEFA82E93E0892E2AE3922EAA
:100A4000209711F4BB20D9F10E943A0281110AC00B
:100A5000AA94AA20D9F161E070E080E090E00E94C1
:100A6000C304EECF8C171D0611F00CF08C2F9FB72E
:100A7000F8948092E9002091E80025FD02C09FBF14
:100A8000DFCF282F30E0C21BD30BF701815020F0BD
:100A900041914093F100FACFE20EF31EBB2021F00A
:100AA0009092E800B12CEBCF8091E80085FDE7CF74
:100AB0009092E800BB24B394209709F3F3CF5D989C
:100AC00084E68093DD03101611063CF081E090E08F
:100AD000F6019383828310E000E0C801DF91CF919B
:100AE0001F910F91FF90EF90DF90CF90BF90AF904C
:100AF0009F908F9008955F926F927F928F929F92B6
:100B0000AF92BF92CF92DF92EF92FF920F931F931B
:100B1000CF93DF935C016901DA015C90232B19F418
:100B2000CC24CA94DC2C8A013A01660E771ED0E0F0
:100B3000C0E0F12CE12C87E0882E912CF50180811A
:100B40009181D8016C910C2E01C0660F0A94EAF7CE
:100B500065296F77DC01ED91FC910190F081E02D2A
:100B60000995BFEFEB1AFB0AF801608170E0C40140
:100B70008C1B9D0B02C0759567958A95E2F7562EE2
:100B80002196C730D10558F1CE14DF0441F1D501CB
:100B90008D919C91652D6F77DC01ED91FC91019019
:100BA000F081E02D0995BFEFEB1AFB0A551C552487
:100BB000551C2797E6CFEC14FD0408F4BFCFDF9156
:100BC000CF911F910F91FF90EF90DF90CF90BF904A
:100BD000AF909F908F907F906F905F9008950F5F80
:100BE0001F4F6016710639F7209749F3EC14FD0486
:100BF00030F7F5018081918161E070E001C0660FFE
:100C0000CA95EAF761506521DC01ED91FC910190F4
:100C1000F081E02DDF91CF911F910F91FF90EF9028
:100C2000DF90CF90BF90AF909F908F907F906F900C
:100C30005F9009941F93CF93DF9300D0CDB7DEB7B9
:100C4000182F7A83698380914E0590914F05009704
:100C5000C9F0DC01ED91FC910190F081E02D1031A3
:100C6000B8F461157044A0F4612F606E099522E01C
:100C700030E0AE014F5F5F4F62E070E08EE495E0E0
:100C80000E947B050F900F90DF91CF911F910895E7
:100C900060EF099580914E0590914F05DC01ED9133
:100CA000FC910190F081E02D6FE6099580914E0551
:100CB00090914F05DC01ED91FC910190F081E02DC8
:100CC000612F099522E030E0AE014F5F5F4F62E097
:100CD00070E08EE495E00E947B0580914E05909136
:100CE0004F05DC01ED91FC910190F081E02D67EF63
:100CF0000995C8CFEF92FF920F931F93CF93DF9385
:100D0000C82F80914E0590914F050097C9F17A0147
:100D10008B01DC01ED91FC910190F081E02D60EF01
:100D2000099580914E0590914F05DC01ED91FC9164
:100D30000190F081E02D6C2F0995E7010E0D1F1D2C
:100D4000C017D10759F030E020E0AE0161E070E05B
:100D50008EE495E00E947B052196F2CF80914E05AE
:100D600090914F05DC01ED91FC910190F081E02D17
:100D700067EFDF91CF911F910F91FF90EF90099452
:100D8000DF91CF911F910F91FF90EF900895CF9336
:100D9000DF93009729F1EC01C05CDF4F88819981D6
:100DA0000097F1F0DC01ED91FC910190F081E02DD4
:100DB00069EF099588819981DC01ED91FC910190A1
:100DC000F081E02D62E0099588819981DC01ED9147
:100DD000FC910190F081E02D66E0DF91CF910994C4
:100DE000DF91CF910895CF92DF92EF92FF920F9310
:100DF0001F93CF93DF93009709F463C0FC01E05881
:100E0000FF4FE080EE2009F45CC0EC01C05CDF4FD6
:100E1000A881B981109709F454C0FC01EF57FF4F26
:100E2000C080D180F60111810081ED91FC91119774
:100E30000190F081E02D60EFCD01099588819981C5
:100E4000DC01ED91FC910190F081E02D69E70995BD
:100E500088819981DC01ED91FC910190F081E02D78
:100E6000602F099588819981DC01ED91FC910190B9
:100E7000F081E02D612F0995F12C01E010E00F5F6A
:100E80001F4FE016F10659F030E020E0A601400FB8
:100E9000511F61E070E0CE010E947B05F0CF888198
:100EA0009981DC01ED91FC910190F081E02D67EFDB
:100EB000DF91CF911F910F91FF90EF90DF90CF9036
:100EC0000994DF91CF911F910F91FF90EF90DF90E8
:100ED000CF90089585ED8093BC008091BC0084FD87
:100EE000FCCF1092990408952091A703260F332771
:100EF000331F21323105ECF420919904FC0190E07C
:100F000080E0243069F082E00895A091A703219148
:100F1000AC014B575C4FA40FB52FB11D2C9301961C
:100F2000861798F38091A703680F6093A70380E06A
:100F3000089581E00895089508950895E091840347
:100F400080918303E81730F4F0E0ED59FC4F808185
:100F500090E008958FEF9FEF089590918403809122
:100F600083032FEF3FEF981748F4E92FF0E0ED5996
:100F7000FC4F208130E09F5F90938403C901089566
:100F80008091830390918403891B990B0895CF92DC
:100F9000DF92EF92FF920F931F93CF93DF937C0129
:100FA000CB018A0120919A04222389F0EB016B0185
:100FB000C40ED51ECC15DD0569F06991D701ED9100
:100FC000FC910190F081E02DC7010995F3CF642FCA
:100FD0000E947407C801DF91CF911F910F91FF907C
:100FE000EF90DF90CF900895CF93DF931F92CDB70E
:100FF000DEB7698320919A042223F9F02091BD0481
:10100000203258F021E030E0FC013383228390E06D
:1010100080E00F90DF91CF91089580919B04E82F9D
:10102000F0E0E456FB4F998190838F5F80939B049F
:101030008093BD0481E090E0ECCF61E0CE010196A9
:101040000E947407F7CF90E080E00895DF92EF925E
:10105000FF920F931F93CF93DF93EC01D62E7A016B
:10106000890188818C3008F067C061E08D2D0E9475
:101070003E048881282F30E0F901EE0FFF1FE20FB8
:10108000F31FE850FA4F9D2D9F736081607C692BA0
:10109000608320E232E02E193F0937FF02C02D5F46
:1010A0003F4F3595279535952795298320E639E0DB
:1010B000201B310B37FF02C02D5F3F4F3595279521
:1010C000359527952A832CE0622F0E945925829F0F
:1010D000B001112430E020E0AB01420F531FFA01B0
:1010E000EE0FFF1FE40FF51FE850FA4F908196FDB9
:1010F00016C02F5F3F4F2C30310571F781110FC0A3
:101100001092800082E080938100109285001092FE
:101110008400B19A80916F00826080936F00E881B3
:101120008E2F90E0FC01EE0FFF1FE80FF91FE85033
:10113000FA4F8081806480838881DF91CF911F91F5
:101140000F91FF90EF90DF900895AF92BF92CF92F2
:10115000DF92EF92FF920F931F93CF93DF93109242
:101160002C0410922D0410922E0410922F04109231
:101170003004FC01E95CFB4FC081845A9C4FFC01A8
:10118000D08161E08C2F0E943E0460E08C2F0E9491
:10119000E7036D2F70E090E080E00E94C30460E000
:1011A0008C2F0E943E048BE990E00197F1F700E953
:1011B00011E08C2F0E94BE03892B81F4015011098C
:1011C000C1F78EEF9FEFDF91CF911F910F91FF90AD
:1011D000EF90DF90CF90BF90AF90089500E911E0BD
:1011E0008C2F0E94BE03019721F401501109C1F711
:1011F000E8CF18E200E0D0E890E9E92EFF24F3946C
:101200008C2F0E94BE03892B29F4F1E0EF1AF1081C
:10121000B9F7D7CF0E949E046B017C0180E9A82E0C
:10122000BB24B3948C2F0E94BE03019729F481E064
:10123000A81AB108B9F7C5CF0E949E046C197D09A0
:101240008E099F09693271058105910538F0E02FFB
:10125000F0E0E45DFB4F80818D2B8083D69511F407
:101260000F5FD0E8115041F690E080E0ACCFCF9313
:101270008C30B0F421E030E0082E02C0220F331F82
:101280000A94E2F740912A0450912B04672B51F401
:10129000209530952423352330932B0420932A0462
:1012A000CF910895242B352B30932B0420932A04BF
:1012B00090915B039111F4CFC82F0E947A04BC0176
:1012C0008C2FCF910C941A064F925F926F927F925F
:1012D0008F929F92AF92BF92CF92DF92EF92FF9246
:1012E0000F931F93CF93DF93843008F0A3C08F5FD9
:1012F000C82FCC0FCC0FCC0F4C2ECF3110F05EE1AD
:10130000452ED62F38EF532E5C0E852C912CC40120
:10131000880F991F9C01225F3A4F5901052DD12C4E
:10132000C12C10E0772473940415A8F5F601E80D9C
:10133000F91DEF56FA4F90819230B8F48D2F872126
:1013400066246394811101C0612C7601EE0CFF1CB0
:10135000913089F4172931EAE30EF11CF501EE0D05
:10136000FF1D862D90E091838083770C0F5F8FEFB8
:10137000C81AD80AD9CF882371F3F701EF55FF4F68
:10138000EA0DFB1D80819181019729F362E0802F96
:101390000E943E04E0CF10FF05C06D2F6170852DC7
:1013A0000E94E70311FF06C06D2F627089EF8C0F5A
:1013B0000E94E70312FF06C06D2F64708AEF8C0F46
:1013C0000E94E70313FF06C06D2F68708BEF8C0F30
:1013D0000E94E70314FF06C06D2F60718CEF8C0F25
:1013E0000E94E70315FF06C06D2F60728DEF8C0F12
:1013F0000E94E70316FF06C06D2F60748EEF8C0FFE
:101400000E94E70317FF16C06D2F60788FEF8C0FD7
:10141000DF91CF911F910F91FF90EF90DF90CF90D0
:10142000BF90AF909F908F907F906F905F904F9004
:101430000C94E703DF91CF911F910F91FF90EF90F4
:10144000DF90CF90BF90AF909F908F907F906F90E4
:101450005F904F9008958F929F92AF92BF92CF92DC
:10146000DF92EF92FF920F931F93CF93DF93EB01E5
:101470008E3108F094C0082F10E0F801EF56FA4FB3
:101480009081933009F498C0943009F088C0F80135
:10149000E85CFC4FC080D12C7601EE0CFF1C4B01A8
:1014A000603282E078070CF03EC0F701EC0DFD1DC4
:1014B000E35EF94F8181A8E88A2E912C881A910861
:1014C00087FD9394880C991C880C991C092C000C9E
:1014D000AA08BB08828128E532E0281B310987FD74
:1014E0003395220F331F220F331F032E000C440BA2
:1014F000550B281939094A095B09DB01653B710560
:1015000014F0A4EBB0E0B7FF02C0B0E0A0E00E948E
:10151000202524EB30E040E050E00E94F624820ECB
:10152000931EA41EB51EF701EC0DFD1DE35EF94FE1
:1015300020812C3068F5318188E890E0831B910987
:1015400037FD9395880F991F880F991F8816990664
:101550007CF0328188E592E0831B910937FD9395F9
:10156000880F991F880F991F881699060CF4C401DB
:101570000297880F991F4FB7F89430E0F901EE0FEA
:10158000FF1FE20FF31FE850FA4F928381834FBF92
:10159000000F111FF801E155FA4FD183C083DF918D
:1015A000CF911F910F91FF90EF90DF90CF90BF9060
:1015B000AF909F908F900895F82E83E0081759F010
:1015C0008BEF800F823038F087EF800F833018F078
:1015D0008DE00813DDCF61E08F2D0E943E0420973F
:1015E00029F460E08F2D0E94E703D2CFCF3FD105D1
:1015F00011F461E0F7CFF801E05EFE4FE491E150B5
:10160000EF3008F07CC0F0E0E85FF44F0C948D25DB
:10161000170B1C0B210B2B0B350B7F0B7F0B7F0B41
:101620003F0B490B530B5D0B6A0B7F0B720B84B5A1
:10163000806884BDC7BDACCF84B5806284BDC8BDA1
:10164000A7CF80918000806880938000D09389002C
:10165000C09388009DCF809180008062809380003D
:10166000D0938B00C0938A0093CF809180008860D4
:1016700080938000D0938D00C0938C0089CF80919F
:101680009000806880939000D0939900C093980058
:101690007FCF80919000806280939000D0939B00D8
:1016A000C0939A0075CF80919000886080939000DD
:1016B000D0939D00C0939C006BCF8091C000806848
:1016C0008093C0008091C0008F7B8093C000C09346
:1016D000CF005ECF8091C00080628093C000C09335
:1016E000D00056CF8091C20088608093C200809164
:1016F000C2008B7F8093C200C093D20049CFC03814
:10170000D1050CF076CF6DCF8E3180F4E82FF0E06C
:10171000DF01AF56BA4F9C91913041F4EE0FFF1F9D
:10172000E155FA4F608371830C94E7030895FF92AB
:101730000F931F93CF93DF9300D0CDB7DEB7082F61
:1017400010E0F801E051FC4F9081F62EF9220A5A80
:101750001C4F411104C0F80190819F1511F12F2DEC
:1017600030E03A832983A0914E05B0914F05109740
:10177000B1F0682F6F706069ED91FC911197019045
:10178000F081E02DCD01099522E030E0AE014F5F00
:101790005F4F62E070E08EE495E00E947B05F80107
:1017A000F0820F900F90DF91CF911F910F91FF90DA
:1017B00008950F931F93CF93DF93843008F069C08F
:1017C000282F30E0F901EC50FC4F6083672B09F4BF
:1017D00060C0082F20513C4FF9011081D82FDD0F38
:1017E000DD0FDD0FC12FC17010FF07C08D2F0E94CC
:1017F000BE03C1E0892B09F4C0E011FF07C081E0FE
:101800008D0F0E94BE03892B09F0C26012FF07C032
:1018100082E08D0F0E94BE03892B09F0C46013FF84
:1018200007C083E08D0F0E94BE03892B09F0C860BA
:1018300014FF07C084E08D0F0E94BE03892B09F0BE
:10184000C06115FF07C085E08D0F0E94BE03892B84
:1018500009F0C062D831A1F016FF07C086E08D0FF5
:101860000E94BE03892B09F0C064D73149F017FFED
:1018700007C087E08D0F0E94BE03892B09F0C06866
:1018800041E06C2F802FDF91CF911F910F910C942D
:10189000970BDF91CF911F910F910895A82FB0E082
:1018A000A85CBC4F9C91292F30E0F901EE0FFF1F7F
:1018B000E20FF31FE35EF94FE0812E2F30E0F901D4
:1018C000EE0FFF1FE20FF31FE850FA4F80818F7B6E
:1018D000808380913603981308C0992319F09150A2
:1018E000909336038FEF8C9308958823D9F3E0917A
:1018F0003703EF5FE0933703F0E0EA52FD4F908348
:10190000F1CFFC0101900020E9F73197BF01681B7E
:10191000790BAC0181E70C947A06EF92FF920F935A
:101920001F93CF93DF93D82F8B01C42FF22E6F3FDD
:10193000760709F488C081E080939A04D093BC04B0
:1019400010929B041092BD048CEE95E00E94F40767
:101950008F2D0E9464018091340390913503823071
:10196000910538F0880F991F880F991F05970197E7
:10197000F1F7809199048111FCCF9C2FC13208F0BE
:1019800090E281E080939904809398042FEF209354
:10199000970410929604290F209395048093740461
:1019A000209174048D2F880F822B80937404809172
:1019B0007304813009F049C010927304809174045B
:1019C0008093BB008091BC0083FDF8CF85EC8093B1
:1019D000BC00809199048130E1F3809196048917CD
:1019E00010F490919604A5E7B4E0E3E6F3E080E01C
:1019F00089132DC01092840380938303EC2EF12C65
:101A000090E0E816F9063CF581E491E00E94810C33
:101A1000D093E3020093E40203EE12E0C801835E78
:101A200092408E159F05ECF40F5F1F4F909183033A
:101A3000809184039817A9F08CEE95E00E94AD0781
:101A4000F8018183EBCF00E094CF85EEC0CF2D91DC
:101A500021938F5FCDCF8E159F05D4F68EE591E053
:101A6000D5CFCE5F6C2F70E043EE52E087E7DF9179
:101A7000CF911F910F91FF90EF900C947A06CF9326
:101A8000DF93DB01909136039C3078F5309137037A
:101A9000682F70E0FB01E85CFC4F3323E1F0C32FBB
:101AA000D0E0CA52DD4F88818083315030933703B4
:101AB000808123E0829FC0011124835E994F1A1612
:101AC0001B0674F4141615065CF49A01AD01DF913F
:101AD000CF910C94260890839F5F90933603E8CFB4
:101AE00020E639E040E252E0F2CF8AE791E0DF9170
:101AF000CF910C94810CAF92BF92CF92DF92EF9274
:101B0000FF920F931F93CF93DF93C82ED12CE60142
:101B1000C25FDA4FFE01ED57FF4F90819F3709F406
:101B200022C17B01182F963069F480915A038823D3
:101B300049F06630710509F473C110925A038FEFB2
:101B400080930D011E3110F584E0E816F104F1F0E8
:101B5000F601E85CFC4F80818C30C0F490E0FC0121
:101B6000EE0FFF1FE80FF91FE35EF94FE0818E2FA4
:101B700090E0FC01EE0FFF1FE80FF91FE850FA4F4D
:101B8000808186FF03C0812F0E944E0C0EEE010F54
:101B90000C3028F561E070E032E0E316F10411F05A
:101BA00070E060E0802F0E943709E12FE695E6950E
:101BB000E695F0E0E051FC4F2081312F377081E055
:101BC00090E001C0880F3A95EAF7E114F10421F0A2
:101BD0003BE0E316F10481F5822B808302C01E31C5
:101BE00020F35601AA0CBB1CF501E155FA4F1182F6
:101BF000108286E0E816F10409F4F6C00CF05EC02D
:101C000082E0E816F10409F494C0CCF4E114F10484
:101C100009F49DC0EA94EF2809F4B0C08EE891E081
:101C2000DF91CF911F910F91FF90EF90DF90CF90B8
:101C3000BF90AF900C94810C80958223CECF33E07F
:101C4000E316F10409F4B1C084E0E816F10431F7B9
:101C50001E3108F088C0CD57DF4F88818F3711F0D3
:101C600084E08883F601E85CFC4F80818F3FA9F017
:101C700090E0FC01EE0FFF1FE80FF91FE35EF94F44
:101C8000E0818E2F90E0FC01EE0FFF1FE80FF91F9F
:101C9000E850FA4F808186FD66C04FEF5FEF6FEF2F
:101CA0007FEF812FDF91CF911F910F91FF90EF90E8
:101CB000DF90CF90BF90AF900C943F0D3CE0E316C7
:101CC000F10409F49DC004F53AE0E316F10409F4C7
:101CD0004AC08BE0E816F10409F0A0CF1E3108F0ED
:101CE00042C062E0812F0E943E04CD57DF4F8881C1
:101CF0008F3711F08BE08883F501E155FA4F81E0D1
:101D000090E0918380832FC03FE0E316F10409F453
:101D10007FC080E6E816F10431F13DE0E316F104FE
:101D200009F07CCFCD57DF4F88818F37E1F08DE010
:101D30000CC00C30C0F460E0812F0E943E04CD57EF
:101D4000DF4F88818F3779F082E088830CC01E31A5
:101D500050F460E0812F0E943E04CD57DF4F888110
:101D60008F3709F01882DF91CF911F910F91FF906B
:101D7000EF90DF90CF90BF90AF9008951E3198F70D
:101D8000FE01ED57FF4F8081833021F460E0812F09
:101D90000E94E70361E0812F0E943E04CD57DF4F90
:101DA00088818F3701F381E0D0CF133051F08BEF72
:101DB000810F823030F087EF810F833010F01D30BB
:101DC00091F661E0812F0E943E0461E0812F0E9424
:101DD0003E0460E0812F0E94E703CD57DF4F8881EA
:101DE0008F3709F283E0B1CF1250123008F0BBCF29
:101DF000CD57DF4F88818F3709F4B5CF86E0A5CF67
:101E0000CD57DF4F88818F3709F4ADCF8CE09DCF60
:101E1000CD57DF4F88818F3709F4A5CF8FE095CF5D
:101E20001E3108F495CEB2CE0F931F93CF93DF935C
:101E300081E080935B0380915A03882329F01092FC
:101E40005A038FEF80930D01E4EFF3E0C0EFD3E08E
:101E5000A6E5B3E0119219921D9283E0E83FF807DE
:101E6000C9F708E313E0C0E0DFEF8EEE8C0F8C3093
:101E7000A8F562E070E08C2F0E947B0DF801D193F1
:101E80008F01CF5FCE3189F710925C0410925B0412
:101E9000E4E4F4E0ADE4B4E08AE494E02FE72193D5
:101EA0004D915D91452B21F0ED0122971982188209
:101EB0008E179F07A1F710922B0410922A041092FC
:101EC00037031092360310923F0410923E04109292
:101ED0005B03DF91CF911F910F9108958C2F0E948A
:101EE0001504CCCF4F925F926F927F928F929F9208
:101EF000AF92BF92CF92DF92EF92FF920F931F9318
:101F0000CF93DF93CDB7DEB72D970FB6F894DEBF32
:101F10000FBECDBF162F7A01893609F440C408F0F0
:101F200004C1813509F47BC108F0B9C0813309F4DB
:101F300090C6803509F42BC3803309F086C1DA01DD
:101F4000FC914F2F50E08091430690914406481732
:101F5000590708F04DC012967C9112977795772714
:101F6000779511968C911197780F14966C91149720
:101F700067956627679513968C911397680F169649
:101F80002C91169727952227279515963C91320F6D
:101F900020914906222359F0729FC0011124792F04
:101FA000269FC0011124692F239F90011124E091E5
:101FB0004F0680914A0690914B0620914C06E21301
:101FC000F3C6B3E0FB9F800D911D1124E0914C06F8
:101FD000E80FF92FF11D7083E0914D06E80FF92FFE
:101FE000F11D608320914E06820F911DFC0130830C
:101FF000E0914A06F0914B06309709F426C1809192
:102000004506909146069A838983DF011196808167
:102010008987E0915406F091550680915606982FD5
:10202000909520914106222309F4C9C62081822B74
:102030008887808189238F838F818C8388E08B833D
:1020400058856F8149853B812C8189819A81508394
:1020500047FD252F3A952083262F39F0441F00C0D5
:1020600000006083000000C0F2CF38E04D91608333
:102070000000019761F7F0935506E09354064987F5
:102080003B832C839A8389830E949E04609350062D
:10209000709351068093520690935306D6C08236B1
:1020A00009F474C5843609F4C2C68F3509F0CDC071
:1020B000DA019C9111968C91119791114CC5139650
:1020C0008C90B0E88B9E40011124FA012281820E8F
:1020D000911CA580F0E8AF9E90011124DA011496BE
:1020E000AC90A20EB32EB11C90910001891709F497
:1020F00067C39F3F09F0A9C080930001EFE3F1E0BF
:1021000014911F3F09F4A1C0113009F4F0C308F481
:10211000D1C3133009F40DC4143009F430C417FDD1
:1021200094C061E00E943E0455C3803709F4DAC1CF
:1021300008F04DC08D3609F4EEC28F3609F47AC22C
:102140008B3609F082C080EF0E9457018CE60E9416
:10215000570110E080E00E94570181E00E94570182
:102160008BE00E94570181E00E94570181E00E94AC
:10217000570181E00E94570188E00E94570181E0E9
:102180000E9457018CE00E94570181E00E94570194
:102190008DE00E94570181E00E9457018EEE810F71
:1021A0008C3008F07FC282E00E9457018AE00E94D2
:1021B00057018BEF810F823008F477C287EF810FD0
:1021C000833008F472C21D3009F075C26EC28837C0
:1021D00009F42EC18A3709F4FEC18637B1F5DA0158
:1021E00011969C91119795FF22C08FE991E02D9651
:1021F0000FB6F894DEBF0FBECDBFDF91CF911F9118
:102200000F91FF90EF90DF90CF90BF90AF909F9095
:102210008F907F906F905F904F900C94810C80EF27
:102220000E94570182E50E94570181E0B5C2FA0180
:10223000808196FB332730F921E02327987198306D
:1022400009F44BC0C8F4992329F12D960FB6F894E0
:10225000DEBF0FBECDBFDF91CF911F910F91FF90D9
:10226000EF90DF90CF90BF90AF909F908F907F9036
:102270006F905F904F900895903109F460C098314D
:1022800021F720910D0112160CF48DC08FEF809371
:102290000D01DBCF91E090939A048093BC041092DF
:1022A0009B041092BD0402E0011778F4F701E00FDF
:1022B000F11D61816795662767958081680F8CEEB7
:1022C00095E00E94F4070E5FEFCF81E00E94640169
:1022D00083E191E00197F1F7B8CF12969C911297A4
:1022E00013964C91663021F5B0E84B9FB001112454
:1022F000690F711D45814795442747959481490F82
:102300002D960FB6F894DEBF0FBECDBFDF91CF91F3
:102310001F910F91FF90EF90DF90CF90BF90AF9003
:102320009F908F907F906F905F904F900C948D0C4A
:10233000479544274795490F6FEF7FEFE1CFE09135
:102340000D01E7301CF08FEB91E051CF12963C91DC
:10235000129713969C916630F9F4B0E89B9FA00108
:102360001124430F511DD70115969C9115979795F0
:102370009927979514963C91930FEF5FE0930D0189
:10238000B5E0EB02F0011124EE5FFB4F8083528336
:1023900041839383248359CF979599279795930FDA
:1023A0004FEF5FEFEACF90E0622F022E000C770B29
:1023B00035E0492F50E06417750764F0349FF00151
:1023C000359FF00D1124EE5FFB4F4081481719F047
:1023D0009F5FEFCF90E085E0492F50E064177507CD
:1023E0001CF19830F8F4FA0131968E9FD0018F9F3E
:1023F000B00D1124AE5FBB4F3C91849FF001859FCF
:10240000F00D1124EE5FFB4F308311964D915C91DE
:1024100012975283418313963C91139733831496FA
:102420003C9134839F5FD8CF215020930D010DCF75
:10243000623088F0FA018181F0E88F9F90011124C9
:10244000DA018C91820F932F911D009721F09093C8
:1024500035038093340380915A038111F6CE10E046
:102460008EEF810F823028F466E070E0812F0E94A9
:102470007B0D1F5F1E31A1F781E080935A031092FC
:1024800084031092830310929B041092BD04109257
:102490009904809398041092730461E082E00E9492
:1024A000E70361E083E00E94E7038091B9008E7F3B
:1024B0008093B9008091B9008D7F8093B90088E442
:1024C0008093B80085E48093BC008BE997E09093FB
:1024D000A6038093A5038CE997E09093AA038093C9
:1024E000A903B3CE653008F4B0CEFA0110811E31D5
:1024F00008F0ABCE0181C280D380F480E12FF0E000
:10250000E85CFC4F80818C30C0F490E0FC01EE0F61
:10251000FF1FE80FF91FE35EF94FE0818E2F90E077
:10252000FC01EE0FFF1FE80FF91FE850FA4F808102
:1025300086FF03C0812F0E944E0CF0E8FF9EA00191
:1025400011244D0D511D20E8C29EB0011124600FD1
:10255000711D812F0E943F0D64E070E0812F2D9648
:102560000FB6F894DEBF0FBECDBFDF91CF911F91A4
:102570000F91FF90EF90DF90CF90BF90AF909F9022
:102580008F907F906F905F904F900C947B0DDA014D
:1025900011968C91B0E88B9F90011124FA018081F3
:1025A000820F932F911D90930104809300042FB705
:1025B000F8948091F8039091F903A091FA03B091F7
:1025C000FB032FBF8093FC039093FD03A093FE03B6
:1025D000B093FF033ACE623008F437CEDA01119699
:1025E0008C91B0E88B9F90011124FA018081820FB9
:1025F000932F911D0097D9F090930F0180930E01B6
:1026000020910E0130910F0188E290E0B9010E9403
:10261000652570935E0460935D0480ED97E0B901D9
:102620000E94652570934104609340040ECE81E0C2
:1026300090E0E2CF623008F408CEDA0111966C9196
:10264000119770E01230A1F012968C91B0E88B9F38
:10265000C0011124682B792B133051F0FA018381CA
:1026600090E090E4899F902D88271124682B792B86
:10267000D7018C912D960FB6F894DEBF0FBECDBF5B
:10268000DF91CF911F910F91FF90EF90DF90CF904E
:10269000BF90AF909F908F907F906F905F904F9082
:1026A0000C942B0A133009F084CD83E00E9457016B
:1026B00088E00E94570184E00E9457018EE00E944A
:1026C00057018EEF810F823030F486E00E9457016F
:1026D00081E00E9457018FE70E9457011F5F1E3162
:1026E00009F038CD87EF2D960FB6F894DEBF0FBEF8
:1026F000CDBFDF91CF911F910F91FF90EF90DF90B1
:10270000CF90BF90AF909F908F907F906F905F9091
:102710004F900C945701662309F497CDFA0100817C
:1027200080EF0E9457018EE60E945701802F0E9481
:1027300057010E31B8F610E0F801EF56FA4F8081DC
:102740000E945701000F111F980121553A4F79013E
:10275000D9018C918F770E945701F7018081918177
:102760009C012078232B39F0880F892F881F990B23
:102770008F770E945701F801E155FA4F80819181CE
:102780009C012227307C232B09F4ACCF990F880BB6
:10279000990F982F881F8F770E945701A3CF80EF42
:1027A0000E9457018AE60E9457011EEE8FE71C30F7
:1027B00008F4812F0E9457011F5F1C30B9F792CF98
:1027C000EFE3F1E0149117FD40CD61E00E943E047B
:1027D000112319F0123009F021C12401092C000C39
:1027E0006608770860E072E18AE790E0A301920151
:1027F0000E94F6242A873B874C875D8769017A010E
:10280000B1E0CB1AD108E108F108EFEFCE16D10400
:10281000E104F10409F00CF4F7C060E472E48FE025
:1028200090E0A30192010E94F62469017A01F1E08F
:10283000CF1AD108E108F108123009F0C2C02FEF19
:10284000C216D104E104F104C1F0BCF060E970EDFE
:1028500083E090E0A30192010E94F62469017A01CD
:1028600061E0C61AD108E108F1088FEFC816D1045B
:10287000E104F10411F00CF065C32FEF3FEFA90163
:10288000A114B10409F004C1113009F452C10CF0D3
:102890004BC11111DACCC7BC20932E0330932F0308
:1028A000409330035093310380916E008260809397
:1028B0006E00CBCC14BC15BC94B5926094BD95B59C
:1028C000916095BD282F30E0F901EE51FF4FE49162
:1028D000F0E0EE0FFF1FEA53FF4F45915491F901CD
:1028E000EF5FFE4FE491E093250310E06ECF10926E
:1028F00080001092810090918100986090938100F7
:1029000090918100916090938100282F30E0F9012F
:10291000EE51FF4FE491F0E0EE0FFF1FEA53FF4F3F
:1029200045915491F901EF5FFE4FE491E093240348
:102930004CCF10929000109291009091910098606D
:102940009093910090919100916090939100282F25
:1029500030E0F901EE51FF4FE491F0E0EE0FFF1F80
:10296000EA53FF4F459154915093D2034093D103C2
:10297000F901EF5FFE4FE491E093D30326CF10926D
:10298000C0001092C1009091C10098609093C10066
:102990009091C10091609093C100282F30E0F9011F
:1029A000EE51FF4FE491F0E0EE0FFF1FEA53FF4FAF
:1029B00045915491F901EF5FFE4FE491E0932303B9
:1029C00004CF9FEFC916D104E104F10429F124F1E9
:1029D00068E478EE81E090E0A30192010E94F62481
:1029E00069017A01A1E0CA1AD108E108F1081123AE
:1029F00009F4E6C2BFEFCB16D104E104F10411F0F3
:102A00000CF0E7C211E039CF81E0111136CF95B556
:102A1000987F892B85BD31CF82E0F7CF2401092C27
:102A2000000C6608770860E072E18AE790E0A30195
:102A300092010E94F62469017A0161E0C61AD10868
:102A4000E108F10891E0C114D10481E0E806F10445
:102A500084F068E478EE81E090E0A30192010E94A6
:102A6000F62469017A0191E0C91AD108E108F10858
:102A700093E01130D1F480918100887F892B80937D
:102A800081002FEF3FEFA901A114B10409F451C057
:102A90009401220F331FD5010E94932528EE33E0C5
:102AA00040E050E00E942825EFCE1330F1F48091F1
:102AB0009100887F892B809391002FEF3FEFA90130
:102AC000A114B10429F7D0929900C09298002093E4
:102AD000D4033093D5034093D6035093D70380910A
:102AE0007100826080937100B0CB143009F0C5CEC4
:102AF0008091C100887F892B8093C1002FEF3FEF29
:102B0000A901A114B10421F6C092CF00209326039D
:102B10003093270340932803509329038091720038
:102B200080648093720091CB133069F2143061F3AA
:102B30008CCBD0928900C092880020932A033093D6
:102B40002B0340932C0350932D0380916F008260E0
:102B500080936F007ACB913009F077CB2D960FB62A
:102B6000F894DEBF0FBECDBFDF91CF911F910F91C3
:102B7000FF90EF90DF90CF90BF90AF909F908F909D
:102B80007F906F905F904F900C94150420915B04A0
:102B900030915C04263031050CF058C0DA018C917C
:102BA0008093330311969C9111979093320313965F
:102BB000CC90B0E8CB9EA0011124F701C280C40ED6
:102BC000D52ED11C0D2C000CEE08FF082C5B3B4FC2
:102BD000D9018C936CE070E00E947B0D6CE070E09A
:102BE000809132030E947B0D8BE090E00E949A2539
:102BF0008C012091320380913303F801808321837B
:102C000091E0281390E0D80112969C9361E00E9415
:102C10003E0460E0F80181810E943E04D8011796CD
:102C2000CD92DD92ED92FC921A9780915B04909187
:102C30005C04FC01EE0FFF1FE35BFB4F118300837D
:102C4000019690935C0480935B04FFCA80ED91E051
:102C5000CECAFA01B0800B2D10E0828187958827BB
:102C600087959181890FE82EF12C80914A069091E9
:102C70004B06009711F00E94362690914F068091E6
:102C80004C06981385C083E090E0E89E6001E99EC1
:102C9000D00CF89ED00C1124D0924606C092450666
:102CA000C6010E949A2590934B0680934A0600978E
:102CB00009F471C0A60170E060E00E94BF26F092A6
:102CC0004406E092430680914206882349F08091B1
:102CD00047069091480697FD03C060E00E943E04BD
:102CE000109348060093470680914206882341F0DE
:102CF00061E08B2D0E943E0460E08B2D0E94E70373
:102D0000F801EE51FF4FE491F0E0EE0FFF1FEA53A0
:102D1000FF4F859194919093550680935406F80146
:102D2000EF5FFE4FE491E093560680914706909145
:102D3000480697FD08C061E00E943E0460E0809173
:102D400047060E94E70381E08093420640914506D2
:102D50005091460670E060E080914A0690914B06E3
:102D60002D960FB6F894DEBF0FBECDBFDF91CF9189
:102D70001F910F91FF90EF90DF90CF90BF90AF9099
:102D80009F908F907F906F905F904F900C94BF2694
:102D900084E090E07ACF1092460610924506109299
:102DA0004406109243068FCF440F551F440F551F02
:102DB000840F951FE80FF92FF11D108207C920819C
:102DC000822B8887808189238F838F818E8388E0FF
:102DD0008D8358856F8149853D812E8189819A81B6
:102DE000508347FD252F00C000C0208300C000C0D5
:102DF00000C000C000C060830000262F3A9541F05B
:102E0000441F000000C000C000C000C000C0E8CFE8
:102E100038E04D9100C0608300C0019709F7F0933E
:102E20005506E093540649873D832E832BC9809134
:102E30003E0490913F04863091050CF065C0DA01A4
:102E4000CC901196DC902D2D30E02631310551F5D6
:102E500021E0FC01E45AFC4F2083FC01E95CFB4FBC
:102E6000C0828F5C9B4FFC01D0826FE070E08C2DA4
:102E70000E947B0D00913E0410913F04C8010E9406
:102E8000A5087C01892BB1F4B8016F5F7F4F709367
:102E90003F0460933E0480914004909141040E945D
:102EA0007925C0CB2B30310511F422E1D2CF8DE052
:102EB00092E09DC980EF0E94570185E60E9457016C
:102EC0008C2D0E9457018D2D0E9457010CE214E0B9
:102ED00020E3C22E24E0D22ED8018D918D018F7770
:102EE0000E945701F80131978081881F8827881F29
:102EF0000E945701C016D10679F7C701F7FE93C9A2
:102F00009195819591098FC982E492E070C984E01E
:102F10002FEFC216D104E104F10409F008F477CDD3
:102F2000CA84DB84EC84FD848AE0F594E794D7942A
:102F3000C7948A95D1F7F1E0CF1AD108E108F108DA
:102F400085E065CD68E478EE81E090E0A301920130
:102F50000E94F62469017A0161E0C61AD108E108ED
:102F6000F1088FEFC816D104E104F10409F00CF464
:102F700084CC64E274EF80E090E0A30192010E94AF
:102F8000F62469017A01B1E0CB1AD108E108F10811
:102F9000EFEFCE16D104E104F10409F008F46DCC92
:102FA00062E17AE780E090E0A30192010E94F624BA
:102FB00069017A01A1E0CA1AD108E108F1081BC031
:102FC00083E09FEFC916D104E104F10409F00CF489
:102FD0001ECD62E17AE780E090E0A30192010E94B9
:102FE000F62469017A01F1E0CF1AD108E108F1086D
:102FF000112309F48CCFEFEFCE16D104E104F104D4
:1030000009F008F43ACCCA84DB84EC84FD849AE0AD
:10301000F594E794D794C7949A95D1F7B1E0CB1A79
:10302000D108E108F10829CC1F920F920FB60F9238
:1030300011248F939F938091E1009091E100937F01
:103040009093E10083FF0FC01092E90091E090930C
:10305000EB001092EC0092E39093ED00109272045A
:1030600098E09093F00082FF22C093E09093E900F3
:103070009091F200992319F09AE39093E8009091CF
:10308000DD03992341F09091DD0391509093DD038E
:10309000911101C05D9A90917104992341F0909132
:1030A0007104915090937104911101C0289A84FF8A
:1030B00018C08091E2008E7E81608093E200809152
:1030C000E1008F7E8093E1008091DE038E7E80613F
:1030D0008093DE039F918F910F900FBE0F901F90F2
:1030E000189580FFF7CF8091E2008E7E80618093FB
:1030F000E2008091E1008E7E8093E1008091DE030A
:103100008E7E8160E5CF1F920F920FB60F92112431
:10311000CF92DF92EF92FF920F931F932F933F93E3
:103120004F935F936F937F938F939F93AF93BF93CF
:10313000EF93FF93CF93DF93CDB7DEB76C97DEBFEE
:10314000CDBF1092E9008091E80083FF25C068E0C0
:10315000CE0145960E94E40282EF8093E8008D89BB
:1031600087FF39C09091E80090FFFCCF982F9076B0
:1031700009F034C19E894F89588D2F89F88C91119F
:1031800031C0803861F58091DF038093F1001092A7
:10319000F1008EEF8093E8006C960FB6F894DEBFD6
:1031A0000FBECDBFDF91CF91FF91EF91BF91AF9156
:1031B0009F918F917F916F915F914F913F912F914F
:1031C0001F910F91FF90EF90DF90CF900F900FBE67
:1031D0000F901F9018959EEF9093E800C7CF109224
:1031E000F100D5CF913059F48111D3CF4130510541
:1031F00081F68091DF038D7F8093DF03CACF933008
:1032000049F48111C6CF4130510519F68091DF0391
:103210008260F2CF953041F48091E80080FFFCCFCE
:1032200020682093E300B5CF963009F0A9C00B8D3C
:103230001C8D22E01092E9001092DB031092DA0359
:10324000F2122EC01092D9031092D8030E94B3023A
:103250001F8299E09983FA8291E09E8390EA988791
:103260009AEF99872091DA033091DB03275F3F4F74
:103270003C832B838D831092E9001092DB03109224
:10328000DA031093D9030093D80349E050E0BE015C
:103290006F5F7F4F80E00E948D020E94B30279CF62
:1032A0001093D9030093D8030E944B02DC011296BD
:1032B0000D911C910115110509F451C1D801ED9131
:1032C000FC910480F581E02DBE016B5E7F4FC8014B
:1032D0000995009709F03EC1F80100851185EACFF4
:1032E000F3E0FF120EC08F89882309F440C08230BA
:1032F00061F440E860E184EA91E00E94351D8111AB
:1033000048CF81E28093EB0047CF813029F440E839
:103310006BE088E991E0F1CF833099F70E944B028E
:10332000DC011296ED90FC908E010F5F1F4F68013B
:10333000E114F10479F0D701ED91FC910680F78159
:10334000E02DB801C7010995080F111DF701E084B0
:10335000F184EECFD8011C92F60101900020E9F72C
:103360003197BF016C197D0940E0C601C6CF62E804
:1033700071E0FB01449150E080E80E948D0209CF8A
:10338000973009F4BECF983021F481E08093F100AA
:1033900000CF993009F0FDCE837009F0B2CFE7E19C
:1033A000F1E081E031E096E32191222371F08093F6
:1033B000E9003093EB00DF0111972C912093EC0092
:1033C0009093ED008F5F873079F78EE78093EA0066
:1033D0001092EA008F8980937204DBCE8B8D9C8DD6
:1033E0001092E9001092DB031092DA039093D90354
:1033F0008093D803898D811192C08E899D89913ADD
:1034000049F4813209F07DCF47E050E065E071E09A
:1034100080E0B3CF913209F074CF833269F48F89A1
:10342000988DB0E0A0E08093010190930201A093F9
:103430000301B0930401ADCE803269F48091E800BD
:1034400082FFFCCF67E085E091E00E94E4028BEF11
:103450008093E8009ECE823209F09BCE8F898093C4
:103460000C01EEEFFFE7859194918B3F9C4D51F15C
:10347000E0E0F8E08091050190910601A09107013C
:10348000B0910801803B9440A105B105F1F4809111
:103490000C0180FD1AC0EE3F8AE0F80789F587E746
:1034A00097E791838083809160008093DC0388E1BB
:1034B0009BE00FB6F894A895809360000FBE9093A0
:1034C000600067CEEEEFFAE0D5CF8081918187373B
:1034D000974709F05ECEA89580916000886180933F
:1034E00060008091DC0380936000EE3F2AE0F207E9
:1034F00089F08091FE0A9091FF0A9183808349CEE2
:10350000808191818737980751F29093FF0A8093C9
:10351000FE0AC5CF1092FF0A1092FE0A3ACE0E9410
:103520004B02DC0112960D911C910115110509F455
:10353000E8CED801ED91FC910190F081E02DBE0123
:103540006B5E7F4FC8010995811123CEF80100857C
:103550001185EBCF181619060CF41BCED2CEF1E074
:10356000FF12BECE66E871E004CF1F920F920FB635
:103570000F9211248F939F93AF93BF93EF93FF9379
:103580008091D4039091D503A091D603B091D70335
:10359000892B8A2B8B2BA1F19091D303E091D1033E
:1035A000F091D2038081892780838091D403909108
:1035B000D503A091D603B091D703181619061A06A1
:1035C0001B069CF48091D4039091D503A091D6035F
:1035D000B091D7030197A109B1098093D4039093C7
:1035E000D503A093D603B093D703FF91EF91BF917A
:1035F000AF919F918F910F900FBE0F901F901895D4
:10360000809171008D7F809371008091D303E09150
:10361000D103F091D2039081809589238083E5CFF7
:103620001F920F920FB60F9211242F933F938F93F7
:103630009F93AF93BF938091F8039091F903A0916A
:10364000FA03B091FB033091CC0323E0230F2D3715
:1036500058F50196A11DB11D2093CC038093F8036A
:103660009093F903A093FA03B093FB038091CD03E9
:103670009091CE03A091CF03B091D0030196A11DEC
:10368000B11D8093CD039093CE03A093CF03B0934D
:10369000D003BF91AF919F918F913F912F910F9048
:1036A0000FBE0F901F90189526E8230F0296A11DBC
:1036B000B11DD2CF1F920F920FB60F9211242F93EC
:1036C0003F934F935F936F937F938F939F93AF93AA
:1036D000BF93EF93FF938091B900887F803609F400
:1036E0004AC0F0F5883209F4A7C018F5803109F412
:1036F0009BC0B8F4882309F4F9C0883009F494C059
:10370000FF91EF91BF91AF919F918F917F916F91B9
:103710005F914F913F912F910F900FBE0F901F908F
:103720001895883109F488C0803251F78093970446
:1037300014C0803409F49DC040F48033B9F3883359
:10374000F9F68093970485ECB0C0803509F485C004
:10375000883509F496C0883499F60E946A07D0CF5C
:10376000883909F48CC038F5883729F050F4883648
:1037700011F0803729F683E0809399041092CB03EF
:1037800057C0883809F47BC0803919F0803809F0B7
:10379000B7CF8091CB03803208F071C0E091CB03AA
:1037A00081E08E0F8093CB038091BB00F0E0E55564
:1037B000FC4F80833DC0803B39F0E0F4803A09F44F
:1037C00079C0883A09F09CCF84E0809399041092E4
:1037D000A8031092A703E091A503F091A603099511
:1037E0008091A70381110FC081E08093A7031092FD
:1037F000850309C0803C09F4A6CF883C09F4A3CF17
:10380000883B09F07DCFE091A80381E08E0F809383
:10381000A803F0E0EB57FC4F80818093BB009091B0
:10382000A8038091A70329C0809174048093BB00F2
:1038300085EC8093BC0064CF9091960480919504B0
:10384000981758F5E091960481E08E0F80939604C6
:10385000F0E0EB58FB4F8081E9CFE091960481E0E6
:103860008E0F809396048091BB00F0E0EB58FB4FE5
:10387000808390919604809195049817C8F285E80A
:10388000D8CFE091960481E08E0F809396048091CA
:10389000BB00F0E0EB58FB4F8083809198048111CE
:1038A0005CCF81E08093730484EA8093BC00109223
:1038B000990426CF85EC8093BC00109299048091E6
:1038C000CB03803230F4E091CB03F0E0E555FC4FC0
:1038D00010826091CB0370E0E091A903F091AA03FC
:1038E0008BEA93E009951092CB030ACF10929704CC
:1038F00034CF1F920F920FB60F9211242F933F9344
:103900004F935F936F937F938F939F93AF93BF93E7
:10391000CF93DF93EF93FF9380916203C0911C06D6
:10392000D0E087FF24C0109285001092840080911F
:1039300062038F5F8093620380916203082E000C04
:10394000990B8C179D0724F4809162038C30C4F18D
:103950008091840090918500049680349C4908F4FD
:103960007AC08091840090918500049676C0809101
:103970006203082E000C990B8C179D07C4F6E0918A
:1039800062038E2FEE0F990BFC01EE0FFF1FE80F65
:10399000F91FE850FA4F808186FFC9CFE09162039A
:1039A0008E2FEE0F990BFC01EE0FFF1FE80FF91F92
:1039B000E850FA4F808160E08F730E94E703B7CF31
:1039C0002091840030918500E09162038E2FEE0FEC
:1039D000990BFC01EE0FFF1FE80FF91FE850FA4F9B
:1039E00081819281820F931F909389008093880038
:1039F000E09162038E2FEE0F990BFC01EE0FFF1F7B
:103A0000E80FF91FE850FA4F808186FF11C0E0915E
:103A100062038E2FEE0F990BFC01EE0FFF1FE80FD4
:103A2000F91FE850FA4F808161E08F730E94E7032D
:103A3000FF91EF91DF91CF91BF91AF919F918F91C6
:103A40007F916F915F914F913F912F910F900FBE9A
:103A50000F901F90189580E49CE9909389008093C3
:103A600088008FEF80936203E3CFEF92FF920F9372
:103A70001F93CF93DF93F82E192FE62E042F81E0AA
:103A8000860F880F0E945F0283E00E945F02CF2DA5
:103A9000D12FEC0EFD2EF11CCE15DF05B9F007FF7E
:103AA00013C0FE0184910E945F02182F80E00E94E3
:103AB0005F02812321968111EFCFDF91CF911F917A
:103AC0000F91FF90EF9008958881EDCF81E0F5CFC1
:103AD000CF92DF92EF92FF921092C1041092C00435
:103AE00048EEC42E43E0D42EE12CF12CC092C20447
:103AF000D092C304E092C404F092C50481E291E044
:103B00009093BF048093BE044FEF5FEF5093CB04BC
:103B10004093CA042EE035E010924F0510924E05F6
:103B2000309352052093510580E490E09093540522
:103B30008093530510925505109256051092580522
:103B4000109257051092590510925B0510925A0574
:103B500010925D0510925C0510925F0510925E0553
:103B60001092610510926005109263051092620533
:103B70001092650510926405109267051092660513
:103B800010926D0510926C0510926F0510926E05E3
:103B900010927105109270051092730510927205C3
:103BA00010928105109280051092500510928E059A
:103BB0001092900510928F0581E08093EB0567E0ED
:103BC00071E0709375056093740561E171E0709325
:103BD0007705609376056BE171E0709379056093EA
:103BE000780565E271E070937B0560937A056FE27A
:103BF00071E070937D0560937C0569E371E07093DB
:103C00007F0560937E0563E471E0709383056093A4
:103C1000820564E471E0709385056093840563EF29
:103C200076E070938705609386053093690520934D
:103C3000680567EC76E0709389056093880530939A
:103C40006B0520936A052FE431E030938B052093B8
:103C50008A051092EF051092EE05C092F005D09201
:103C6000F105E092F205F092F30523E331E03093A1
:103C7000ED052093EC0510924206509348064093C0
:103C800047061092490610924B0610924A0610926F
:103C900050061092510610925206109253068093CD
:103CA0004F0680934C0610924D0692E090934E067C
:103CB00080934106EDE1F6E02FEF48EB5BE0809169
:103CC0001C068C30D8F491E0980F90931C068083EA
:103CD00090E0DC01AA0FBB1FA80FB91FA850BA4F74
:103CE00012965C934E931197339686E0E134F80771
:103CF00031F7FF90EF90DF90CF9008952083F4CFBD
:103D0000789484B5826084BD84B5816084BD85B5B6
:103D1000826085BD85B5816085BD80916E008160C2
:103D200080936E0010928100809181008260809368
:103D3000810080918100816080938100809180006A
:103D400081608093800080919100826080939100D7
:103D500080919100816080939100809190008160BA
:103D6000809390008091C10084608093C100809115
:103D7000C10082608093C1008091C1008160809306
:103D8000C1008091C30081608093C3008091C00016
:103D900082608093C0008091C20081608093C200E5
:103DA00080917A00846080937A0080917A008260AA
:103DB00080937A0080917A00816080937A0080916C
:103DC0007A00806880937A00109272041092DF0368
:103DD0001092DE038091D70081608093D70080EA43
:103DE0008093D80089B5806189BD89B5826089BD1D
:103DF00009B400FEFDCF61E070E080E090E00E9439
:103E0000C3048091D8008F7C80618093D80080911A
:103E1000E000807F8093E0008091E1008E7E8093BF
:103E2000E1008DE08093E200559A209A84E180932E
:103E30008E0580918F05909190050E943626C09145
:103E40008E05D0E0CE0101960E949A2590939005B0
:103E500080938F05FC01EC0FFD1F108222E0DC0136
:103E60002C9326E011962C93AE01425051096EEB33
:103E700072E002960E94C6268BE29AE09093EB03D2
:103E80008093EA0384E699E09093E9038093E80342
:103E900087E399E09093E7038093E60389ED9BE045
:103EA0009093E5038093E4038BE79DE09093E30315
:103EB0008093E20384E89BE09093E1038093E00326
:103EC00082E79FE09093ED038093EC0384E19FE011
:103ED0009093EF038093EE038FEF9FEF9093CB04CB
:103EE0008093CA048091EB0581114FC061E08DE0A1
:103EF0000E943E0462ED70E080E090E00E94C30406
:103F000061E08DE00E94E70368E270E080E090E00D
:103F10000E94C30460E08DE00E94E70362ED70E060
:103F200080E090E00E94C30461E08DE00E94E7031E
:103F300068E270E080E090E00E94C30460E08DE001
:103F40000E94E7036AEF70E080E090E00E94C30403
:103F5000C6E062ED70E080E090E00E94C30461E0A2
:103F60008DE00E94E70368E270E080E090E00E944C
:103F7000C30460E08DE00E94E703C15051F76DE794
:103F800070E080E090E00E94C3048EEB94E0909398
:103F90008D0580938C0590934F0580934E05C091BD
:103FA0000C016AE070E080E090E00E94C304CC2342
:103FB000B1F30E94140F42E0442E512C6624639406
:103FC000712C9924939428E3C22ED12C30E0E32E57
:103FD00030E0F32E8091F403882309F44AC0D09195
:103FE000F003CD2FC170D0FF07C080E00E94BE0358
:103FF000C1E0892B09F4C0E0D1FF06C081E00E9436
:10400000BE03892B09F0C260D2FF06C082E00E9485
:10401000BE03892B09F0C460D3FF06C083E00E9471
:10402000BE03892B09F0C860D4FF06C084E00E945B
:10403000BE03892B09F0C061D5FF06C085E00E9450
:10404000BE03892B09F0C062D6FF06C086E00E943D
:10405000BE03892B09F0C064D7FF06C087E00E9429
:10406000BE03892B09F0C06840E06C2F80E00E94FD
:10407000970B8091F503882309F44AC0D091F1038E
:10408000CD2FC170D0FF07C088E00E94BE03C1E001
:10409000892B09F4C0E0D1FF06C089E00E94BE036D
:1040A000892B09F0C260D2FF06C08AE00E94BE03DD
:1040B000892B09F0C460D3FF06C08BE00E94BE03C9
:1040C000892B09F0C860D4FF06C08CE00E94BE03B3
:1040D000892B09F0C061D5FF06C08DE00E94BE03A8
:1040E000892B09F0C062D6FF06C08EE00E94BE0395
:1040F000892B09F0C064D7FF06C08FE00E94BE0381
:10410000892B09F0C06840E06C2F81E00E94970B7A
:104110008091F603882309F44AC0D091F203CD2F91
:10412000C170D0FF07C080E10E94BE03C1E0892BAF
:1041300009F4C0E0D1FF06C081E10E94BE03892BD3
:1041400009F0C260D2FF06C082E10E94BE03892B43
:1041500009F0C460D3FF06C083E10E94BE03892B2F
:1041600009F0C860D4FF06C084E10E94BE03892B19
:1041700009F0C061D5FF06C085E10E94BE03892B0E
:1041800009F0C062D6FF06C086E10E94BE03892BFB
:1041900009F0C064D7FF06C087E10E94BE03892BE7
:1041A00009F0C06840E06C2F82E00E94970B80917C
:1041B000F7038823D1F1D091F303CD2FC170D0FF45
:1041C00007C088E10E94BE03C1E0892B09F4C0E06A
:1041D000D1FF06C089E10E94BE03892B09F0C260AD
:1041E000D2FF06C08AE10E94BE03892B09F0C46099
:1041F000D3FF06C08BE10E94BE03892B09F0C86083
:10420000D4FF06C08CE10E94BE03892B09F0C06177
:10421000D5FF06C08DE10E94BE03892B09F0C06264
:1042200040E06C2F83E00E94970B80918C05909169
:104230008D05DC01ED91FC910084F185E02D09955F
:10424000892B09F4C9C180918C0590918D05DC0101
:10425000ED91FC910284F385E02D09958F3F98073D
:1042600021F3282F30915905332309F491C0873F5A
:1042700009F07EC010925905A0915105B0915205E8
:104280006C916137C1F1693709F05CC0E091860536
:10429000F0918705309749F280915A0590915B051E
:1042A0008330910560F430E020E050E040E070E0C1
:1042B00060E080916805909169050995B6CFBD01D0
:1042C0006D5F7F4F03970E94F101BC016D5F7F4FCF
:1042D00080E00E94C101E0915105F09152059F01DB
:1042E0002D5F3F4F428150E0618170E0E091860593
:1042F000F0918705DECF8091820590918305892B0F
:1043000009F493CFBD016F5F7F4F80915A05909163
:104310005B0501970E94F101BC016F5F7F4F80E058
:104320000E94C10160915105709152056F5F7F4FEE
:10433000E0918205F091830580916E0590916F0563
:10434000099573CFE0918405F0918505309709F4C4
:104350006CCF9D012F5F3F4F40915A0550915B05F7
:1043600041505109809170059091710509955DCF7B
:1043700060915A0570915B050E94C10180915A05B8
:1043800090915B05019690935B0580935A054DCF04
:1043900060915705709158056115710509F4AEC01B
:1043A00087FDACC061507109709358056093570543
:1043B0000E94C1018091570590915805892B09F001
:1043C00034CF80915505882309F42FCF803D09F41F
:1043D00081C040F4803941F1803C09F467C01092FB
:1043E000550523CF843FD1F1853F09F44BC0803E72
:1043F000B1F7E0917405F0917505309781F3A091C4
:104400005105B09152054C9120E8429FA001112422
:1044100011968C91480F511D6091560580915C0555
:1044200090915D050995DBCFE0917605F0917705D8
:104430003097A9F2A0915105B09152054C9180E8B6
:10444000489FA001112411968C91480F511D609135
:10445000560580915E0590915F05E4CFE0917C0563
:10446000F0917D05309709F4BACFA0915105B09134
:1044700052054C9150E011966C9180916405909199
:104480006505D0CFE0917E05F0917F05309709F466
:10449000A6CFA0915105B09152054C9150E01196D4
:1044A0006C918091660590916705BCCFE09178058D
:1044B000F0917905309709F492CFA0915105B09110
:1044C00052054C9150E060915605809160059091A5
:1044D0006105A8CFE0917A05F0917B05309709F44A
:1044E0007ECFA0915105B09152054C9150E0609162
:1044F0005605809162059091630594CF203F30F47A
:10450000982F9F7090935605282F207F203FF1F120
:1045100090F4203CB1F150F4203909F086CE50924D
:10452000580540925705209355057FCE203D49F10F
:10453000203EA9F37ACE293F09F442C028F48CE04A
:10454000820F823060F371CE2F3F09F06ECE109251
:10455000580510925705109255051092560590E097
:1045600080E0209153053091540582179307A8F4F9
:10457000E0915105F0915205E80FF91F1082019664
:10458000F0CF7092580560925705CDCF90925905A3
:1045900010925B0510925A0548CE10925905109260
:1045A0005B0510925A05E0918A05F0918B05809188
:1045B000720590917305309709F437CE099535CE81
:1045C000E0918805F0918905309709F42ECE80910D
:1045D0006A0590916B05F2CF8FB7F8944091F8037C
:1045E0005091F9036091FA037091FB038FBF8091A2
:1045F000610490916204A0916304B09164040091FD
:104600000E0110910F0130E020E0481B590B6A0B9E
:104610007B0B041715072607370708F0D0C1800F5A
:10462000911FA21FB31F8093610490936204A09313
:104630006304B093640480915F04909160049C01D2
:104640002F5F3F4F3093600420935F0420915D04FF
:1046500030915E04281739070CF0B4C01092600442
:1046600010925F04A0905B04B0905C04A114B104AC
:1046700009F4A8C00091590410915A04F801EE0FF2
:10468000FF1FE35BFB4FC081D1818A81882321F02A
:1046900061E088810E943E0460E088810E94E70317
:1046A00083E090E00197F1F761E088810E94E703E1
:1046B00083E290E00197F1F760E088810E94E703D0
:1046C0008A81882321F060E088810E943E040E9454
:1046D0009E046B837C838D839E8389810E94BE03AD
:1046E000892B99F40E949E042B813C814D815E812F
:1046F000621B730B840B950B2F81388549855A8576
:10470000261737074807590740F70E949E046B8316
:104710007C838D839E8389810E94BE03892B99F0BF
:104720000E949E042B813C814D815E81621B730B34
:10473000840B950B2F81388549855A8526173707B5
:104740004807590740F70E949E042B813C814D8108
:104750005E8100934C04A1E0AA1AB1080A151B055A
:104760000CF0E9C00F5F1F4F10935A0400935904D7
:10477000CB01821B930BB6010E946525862F8F7794
:1047800080934B04660F672F661F770B71956093BC
:104790004A0480EF0E94570183E60E945701E0918E
:1047A0004C04F0E0EC5BFB4F80810E94570180914C
:1047B0004B040E94570180914A040E94570187EFE1
:1047C0000E94570180914204909143049C012F5F05
:1047D0003F4F309343042093420420914004309192
:1047E0004104281739070CF064C000913E04109171
:1047F0003F040115110509F45CC080903D04A82C0C
:10480000B12CC5010E94A508EC01F501E95CFB4F44
:104810002080F501EF5CFB4F308010924304109232
:104820004204839480923D0401501109A016B10600
:1048300014F010923D042097B1F480912C049091D3
:104840002D04890F90912E04890F90912F04890FC8
:10485000C1E0D0E090913004891302C0D0E0C0E004
:10486000D195C195D10980EF0E94570185E60E943C
:104870005701822D0E945701832D0E9457010CE29F
:1048800014E0F80181918F010E94570180E394E0C8
:1048900080179107B1F7CE01D7FF03C0919581959D
:1048A00091090E94570180E00E94570187EF0E9402
:1048B0005701CEE0D5E01EEE1C30C8F4FE01ED57E6
:1048C000FF4F8081823099F480912A0490912B04CB
:1048D000012E02C0959587950A94E2F780FF07C0E4
:1048E000812F0E947A04BC01812F0E941A061F5F4B
:1048F00021961C3009F780910D0187FD21C0C0E091
:10490000D5E02C2F30E080910D01082E000C990B82
:1049100082179307ACF0D29FF001D39FF00D1124C2
:10492000EE5FFB4F618172812481438180810E940F
:104930008D0CCF5FE6CF10925A041092590418CF15
:104940008091000490910104892B09F438C08FB73D
:10495000F8944091F8035091F9036091FA03709133
:10496000FB038FBF8091FC039091FD03A091FE0398
:10497000B091FF03481B590B6A0B7B0B209100047D
:1049800030910104A8EEB3E02A9FC0012B9F900D47
:104990003A9F900D1124B0E0A0E084179507A60778
:1049A000B70768F40E94140F88E198E00FB6F894F6
:1049B000A895809360000FBE90936000FFCFE11434
:1049C000F10409F407CB0E940000FBCA80914A065B
:1049D00090914B060E94362680914706909148069A
:1049E00097FD03C060E00C943E040895052E97FBEC
:1049F0001EF400940E940D2557FD07D00E94282523
:104A000007FC03D04EF40C940D255095409530953D
:104A100021953F4F4F4F5F4F08959095809570952A
:104A200061957F4F8F4F9F4F08950E944A25A59F04
:104A3000900DB49F900DA49F800D911D1124089599
:104A4000B7FF0C9415250E941525821B930B089522
:104A5000A1E21A2EAA1BBB1BFD010DC0AA1FBB1F82
:104A6000EE1FFF1FA217B307E407F50720F0A21BF4
:104A7000B30BE40BF50B661F771F881F991F1A9461
:104A800069F760957095809590959B01AC01BD018B
:104A9000CF010895A29FB001B39FC001A39F700DE5
:104AA000811D1124911DB29F700D811D1124911D36
:104AB0000895991B79E004C0991F961708F0961B7A
:104AC000881F7A95C9F780950895AA1BBB1B51E1F1
:104AD00007C0AA1FBB1FA617B70710F0A61BB70B6E
:104AE000881F991F5A95A9F780959095BC01CD0113
:104AF000089597FB072E16F4009407D077FD09D090
:104B00000E94652507FC05D03EF4909581959F4F46
:104B10000895709561957F4F0895EE0FFF1F0590E2
:104B2000F491E02D09940E944A25B7FF0895821B55
:104B3000930B08950F931F93CF93DF9382309105CA
:104B400010F482E090E0E0915906F0915A0630E0CE
:104B500020E0B0E0A0E0309799F42115310509F488
:104B60004AC0281B390B24303105D8F58A819B8136
:104B70006115710589F1FB0193838283FE0111C0E8
:104B8000408151810281138148175907E0F048178D
:104B9000590799F4109761F012960C931297139697
:104BA0001C933296CF01DF91CF911F910F91089501
:104BB0000093590610935A06F4CF2115310551F090
:104BC0004217530738F0A901DB019A01BD01DF014B
:104BD000F801C1CFEF01F9CF90935A06809359069F
:104BE000CDCFFE01E20FF31F819391932250310943
:104BF00039832883D7CF2091570630915806232B2D
:104C000041F4209112013091130130935806209302
:104C1000570620911001309111012115310541F401
:104C20002DB73EB74091140150911501241B350B4F
:104C3000E0915706F0915806E217F307A0F42E1BF7
:104C40003F0B2817390778F0AC014E5F5F4F2417F0
:104C5000350748F04E0F5F1F509358064093570694
:104C6000819391939FCFF0E0E0E09CCFCF93DF93CF
:104C70000097E9F0FC01329713821282A091590645
:104C8000B0915A06ED0130E020E01097A1F42081A8
:104C90003181820F931F20915706309158062817B3
:104CA000390709F061C0F0935806E0935706DF9189
:104CB000CF910895EA01CE17DF07E8F54A815B81BD
:104CC0009E0141155105B1F7E901FB83EA83499142
:104CD0005991C40FD51FEC17FD0761F480819181B4
:104CE0000296840F951FE9019983888382819381BD
:104CF0009B838A83F0E0E0E012968D919C9113975C
:104D00000097B9F52D913C911197CD010296820F34
:104D1000931F20915706309158062817390739F606
:104D2000309751F510925A0610925906B0935806D2
:104D3000A0935706BCCFD383C28340815181840F97
:104D4000951FC817D90761F44E5F5F4F888199811D
:104D5000480F591F518340838A819B8193838283AB
:104D60002115310509F0B0CFF0935A06E0935906AA
:104D70009ECFFD01DC01C0CF13821282D7CFDC01B0
:104D800001C06D9341505040E0F70895FB01DC01F4
:104D90004150504048F001900D920020C9F701C0E9
:104DA0001D9241505040E0F7089510E0CCEDD0E066
:104DB00004C0FE010E948D252196CD3DD107C9F783
:044DC000F894FFCF95
:104DC400FFFFFFFFFF00E1000000000000FF1300F1
:104DD40000005B06800000C180810000000000002C
:104DE40000F102F604120307035803160334030008
:104DF400000000F407C70723089D07C007AD079EFE
:104E0400074932433A20546F6F206D616E792062F6
:104E140079746573207265636569766564004932E7
:104E2400433A20546F6F2066657720627974657306
:104E3400207265636569766564004D6178207365E9
:104E440072766F7320617474616368656400556E73
:104E54006B6E6F776E2070696E206D6F64650031C4
:104E6400302D6269742061646472657373696E675E
:104E7400206E6F7420737570706F72746564007443
:104E84006F6F206D616E792071756572696573004D
:104E940050494E475F434F4E464947204572726F13
:104EA400723A204578636565646564206E756D6249
:104EB4006572206F6620737570706F7274656420FC
:104EC40070696E6720646576696365730045525244
:104ED4004F523A20554E4B4E4F574E2053454E534A
:104EE4004F5220545950452C2056414C494420538C
:104EF400454E534F5253204152452031312C2032DC
:104F040032004448545F434F4E464947204572722D
:104F14006F723A204578636565646564206E756DCB
:104F2400626572206F6620737570706F7274656449
:104F340020444854206465766963657300433A5C91
:104F440055736572735C647A647A7A5C41707044F8
:104F54006174615C4C6F63616C5C54656D705C6121
:104F6400726475696E6F5F6D6F6469666965645FAD
:104F7400736B657463685F3739323532335C466905
:104F8400726D617461457870726573732E696E6FAA
:024F940000001B
:00000001FF
